:020000040800F2
:1000000000280020ED170008CD160008D3160008C0
:10001000D9160008DF160008E516000800000000E9
:10002000000000000000000000000000EB160008C7
:10003000F716000800000000031700080F1700085B
:10004000351800083518000835180008351800085C
:10005000351800083518000835180008351800084C
:10006000351800083518000835180008351800083C
:10007000351800083518000835180008351800082C
:10008000351800083518000835180008351800081C
:10009000351800083518000835180008351800080C
:1000A00035180008351800083518000835180008FC
:1000B0001D1700083518000800000000351800085A
:1000C0003518000800000000000000003518000886
:1000D0000000000035180008351800080000000076
:1000E0003518000835180008351800080000000011
:1000F0000000000000000000000000000000000000
:0C01000000000000000000005FF808F1A3
:1001100010B5054C237833B9044B13B10448AFF341
:1001200000800123237010BDA40000200000000007
:10013000343C000808B5034B1BB103490348AFF337
:10014000008008BD00000000A8000020343C00082A
:1001500081F0004102E000BF83F0004330B54FEA78
:1001600041044FEA430594EA050F08BF90EA020FE5
:100170001FBF54EA000C55EA020C7FEA645C7FEA78
:10018000655C00F0E2804FEA5454D4EB5555B8BF9B
:100190006D420CDD2C4480EA020281EA030382EA0C
:1001A000000083EA010180EA020281EA0303362D9E
:1001B00088BF30BD11F0004F4FEA01314FF4801C71
:1001C0004CEA113102D0404261EB410113F0004F83
:1001D0004FEA03334CEA133302D0524263EB43033A
:1001E00094EA050F00F0A780A4F10104D5F1200ED8
:1001F0000DDB02FA0EFC22FA05F2801841F1000133
:1002000003FA0EF2801843FA05F359410EE0A5F106
:1002100020050EF1200E012A03FA0EFC28BF4CF037
:10022000020C43FA05F3C01851EBE37101F00045ED
:1002300007D54FF0000EDCF1000C7EEB00006EEBFA
:100240000101B1F5801F1BD3B1F5001F0CD3490884
:100250005FEA30004FEA3C0C04F101044FEA4452DB
:1002600012F5800F80F09A80BCF1004F08BF5FEA62
:10027000500C50F1000041EB045141EA050130BD42
:100280005FEA4C0C404141EB0101013C28BFB1F554
:10029000801FE9D291F0000F04BF01460020B1FA9F
:1002A00081F308BF2033A3F10B03B3F120020CDA72
:1002B0000C3208DD02F1140CC2F10C0201FA0CF050
:1002C00021FA02F10CE002F11402D8BFC2F1200CB5
:1002D00001FA02F120FA0CFCDCBF41EA0C0190406B
:1002E000E41AA2BF01EB0451294330BD6FEA0404B4
:1002F0001F3C1CDA0C340EDC04F11404C4F120029F
:1003000020FA04F001FA02F340EA030021FA04F3B0
:1003100045EA030130BDC4F10C04C4F1200220FA07
:1003200002F001FA04F340EA0300294630BD21FA45
:1003300004F0294630BD94F0000F83F4801306BF0B
:1003400081F480110134013D4EE77FEA645C18BFFF
:100350007FEA655C29D094EA050F08BF90EA020F96
:1003600005D054EA000C04BF1946104630BD91EA8E
:10037000030F1EBF0021002030BD5FEA545C05D191
:100380004000494128BF41F0004130BD14F58004D0
:100390003CBF01F5801130BD01F0004545F0FE4144
:1003A00041F470014FF0000030BD7FEA645C1ABF79
:1003B000194610467FEA655C1CBF0B46024650EAB0
:1003C000013406BF52EA033591EA030F41F40021DC
:1003D00030BD00BF90F0000F04BF0021704730B562
:1003E0004FF4806404F132044FF000054FF0000137
:1003F00050E700BF90F0000F04BF0021704730B5F8
:100400004FF4806404F1320410F0004548BF4042CC
:100410004FF000013EE700BF42004FEAE2014FEA21
:1004200031014FEA02701FBF12F07F4393F07F4FFC
:1004300081F06051704732F07F4208BF704793F0FF
:100440007F4F04BF41F40021704730B54FF4607412
:1004500001F0004521F000411CE700BF50EA010215
:1004600008BF704730B54FF000050AE050EA0102BE
:1004700008BF704730B511F0004502D5404261EB2E
:1004800041014FF4806404F132045FEA915C3FF46F
:10049000D8AE4FF003025FEADC0C18BF03325FEA0C
:1004A000DC0C18BF033202EBDC02C2F1200300FABD
:1004B00003FC20FA02F001FA03FE40EA0E0021FAE2
:1004C00002F11444BDE600BF70B54FF0FF0C4CF4D0
:1004D000E06C1CEA11541DBF1CEA135594EA0C0F82
:1004E00095EA0C0F00F0DEF82C4481EA030621EABD
:1004F0004C5123EA4C5350EA013518BF52EA0335F8
:1005000041F4801143F4801338D0A0FB02CE4FF0A9
:100510000005E1FB02E506F00042E0FB03E54FF0D9
:100520000006E1FB03569CF0000F18BF4EF0010ED1
:10053000A4F1FF04B6F5007F64F5407404D25FEACD
:100540004E0E6D4146EB060642EAC62141EA555180
:100550004FEAC52040EA5E504FEACE2EB4F1FD0CC2
:1005600088BFBCF5E06F1ED8BEF1004F08BF5FEA40
:10057000500E50F1000041EB045170BD06F00046F2
:1005800046EA010140EA020081EA0301B4EB5C049F
:10059000C2BFD4EB0C0541EA045170BD41F4801197
:1005A0004FF0000E013C00F3AB8014F1360FDEBFBC
:1005B000002001F0004170BDC4F10004203C35DA98
:1005C0000C341BDC04F11404C4F1200500FA05F31B
:1005D00020FA04F001FA05F240EA020001F00042BC
:1005E00021F0004110EBD37021FA04F642EB060132
:1005F0005EEA430E08BF20EAD37070BDC4F10C045C
:10060000C4F1200500FA04F320FA05F001FA04F21F
:1006100040EA020001F0004110EBD37041F100010B
:100620005EEA430E08BF20EAD37070BDC4F1200516
:1006300000FA05F24EEA020E20FA04F301FA05F27E
:1006400043EA020321FA04F001F0004121FA04F226
:1006500020EA020000EBD3705EEA430E08BF20EAF6
:10066000D37070BD94F0000F0FD101F00046400030
:1006700041EB010111F4801F08BF013CF7D041EAB2
:10068000060195F0000F18BF704703F000465200B6
:1006900043EB030313F4801F08BF013DF7D043EA87
:1006A0000603704794EA0C0F0CEA135518BF95EA3D
:1006B0000C0F0CD050EA410618BF52EA4306D1D1C4
:1006C00081EA030101F000414FF0000070BD50EAE3
:1006D000410606BF1046194652EA430619D094EA6D
:1006E0000C0F02D150EA013613D195EA0C0F05D157
:1006F00052EA03361CBF104619460AD181EA0301AB
:1007000001F0004141F0FE4141F470014FF0000062
:1007100070BD41F0FE4141F4780170BD70B54FF0FD
:10072000FF0C4CF4E06C1CEA11541DBF1CEA13557D
:1007300094EA0C0F95EA0C0F00F0A7F8A4EB05045F
:1007400081EA030E52EA03354FEA013100F0888056
:100750004FEA03334FF0805545EA131343EA12631F
:100760004FEA022245EA111545EA10654FEA0026D4
:100770000EF000419D4208BF964244F1FD0404F58D
:10078000407402D25B084FEA3202B61A65EB0305E9
:100790005B084FEA32024FF480104FF4002CB6EBA6
:1007A000020E75EB030E22BFB61A754640EA0C0026
:1007B0005B084FEA3202B6EB020E75EB030E22BF66
:1007C000B61A754640EA5C005B084FEA3202B6EBA7
:1007D000020E75EB030E22BFB61A754640EA9C0066
:1007E0005B084FEA3202B6EB020E75EB030E22BF36
:1007F000B61A754640EADC0055EA060E18D04FEAF4
:10080000051545EA16754FEA06164FEAC30343EA93
:1008100052734FEAC2025FEA1C1CC0D111F4801F60
:100820000BD141EA00014FF000004FF0004CB6E759
:1008300011F4801F04BF01430020B4F1FD0C88BFF8
:10084000BCF5E06F3FF6AFAEB5EB030C04BFB6EB03
:10085000020C5FEA500C50F1000041EB045170BDF6
:100860000EF0004E4EEA113114EB5C04C2BFD4EB23
:100870000C0541EA045170BD41F480114FF0000EA7
:10088000013C90E645EA060E8DE60CEA135594EA23
:100890000C0F08BF95EA0C0F3FF43BAF94EA0C0F26
:1008A0000AD150EA01347FF434AF95EA0C0F7FF49B
:1008B00025AF104619462CE795EA0C0F06D152EAEF
:1008C00003353FF4FDAE1046194622E750EA4106D3
:1008D00018BF52EA43067FF4C5AE50EA41047FF4E4
:1008E0000DAF52EA43057FF4EBAE12E74FF0FF3C49
:1008F00006E000BF4FF0010C02E000BF4FF0010C1A
:100900004DF804CD4FEA410C7FEA6C5C4FEA430C92
:1009100018BF7FEA6C5C1BD001B050EA410C0CBFE1
:1009200052EA430C91EA030F02BF90EA020F002043
:10093000704710F1000F91EA030F58BF994208BFAA
:1009400090422CBFD8176FEAE37040F00100704767
:100950004FEA410C7FEA6C5C02D150EA013C07D1BE
:100960004FEA430C7FEA6C5CD6D152EA033CD3D009
:100970005DF8040B704700BF8446104662468C4603
:100980001946634600E000BF01B5FFF7B7FF002836
:1009900048BF10F1000F01BD4DF808EDFFF7F4FF5F
:1009A0000CBF012000205DF808FB00BF4DF808EDEA
:1009B000FFF7EAFF34BF012000205DF808FB00BF0D
:1009C0004DF808EDFFF7E0FF94BF012000205DF82F
:1009D00008FB00BF4DF808EDFFF7CEFF94BF0120E4
:1009E00000205DF808FB00BF4DF808EDFFF7C4FFDD
:1009F00034BF012000205DF808FB00BF4FEA410C26
:100A00007FEA6C5C02D150EA013C0AD14FEA430C08
:100A10007FEA6C5C02D152EA033C02D14FF0000045
:100A200070474FF0010070474A0011D212F50012D2
:100A300011D20DD56FF47873B3EB62520ED44FEA36
:100A4000C12343F0004343EA505323FA02F07047B6
:100A50004FF00000704750EA013002D14FF0FF30F4
:100A600070474FF00000704780B500AFA24B1B6885
:100A7000042B00F28A8101A252F823F0910A0008A7
:100A8000DF0A0008E50B0008790C0008250D0008B6
:100A90009A4B00221A609A4B03221A60994B01224A
:100AA0001A60994B02221A604FF47A7000F046FEE9
:100AB000934B1B68954A1360934B1B68944A1360D1
:100AC000924B1B68184600F0B1FA924B00221A6054
:100AD000914B00221A60884B01221A605EE10020CF
:100AE00000F062FC894B1B68184600F09FFA8B4BA4
:100AF0001B68012B6BD100F05BF900F09DF9834B73
:100B00001B68013B814A1360814B1B68013B804A93
:100B100013607E4B1B68002B25D17E4B1B68013375
:100B20007C4A13607B4B1B68022B02DD794B002251
:100B30001A60784B1B68022B10D0022B15DC002B9F
:100B400002D0012B05D010E06E4B1B686F4A13607A
:100B50000CE06D4B1B686D4A136007E0684B1B6827
:100B60006A4A136002E000BF00E000BF684B1B68E8
:100B7000002B25D1684B1B680133674A1360664B15
:100B80001B68022B02DD644B00221A60624B1B685B
:100B9000022B10D0022B15DC002B02D0012B05D02C
:100BA00010E0584B1B685A4A13600CE0544B1B680A
:100BB000574A136007E0544B1B68554A136002E024
:100BC00000BF00E000BF4FF47A7000F0B7FD0020D6
:100BD00000F076F90346002B00F0D980464B022244
:100BE0001A60D4E0012204214D4801F028F90122C5
:100BF00001214B4801F023F901220821484801F066
:100C00001EF901220221464801F019F900221021A3
:100C1000434801F014F900222021414801F00FF966
:100C2000002000F0C1FB364B1B68184600F0FEF9AF
:100C3000012000F045F90346002B09D0304B1B681A
:100C400001332F4A13602E4B1B68184600F0EEF953
:100C5000022000F035F90346002B02D0264B01227A
:100C60001A60002000F02CF90346002B00F0918060
:100C7000214B03221A608CE000220421284801F055
:100C8000DEF801220121264801F0D9F800220821CE
:100C9000234801F0D4F801220221214801F0CFF8C5
:100CA000012210211E4801F0CAF8012220211C480F
:100CB00001F0C5F8002000F077FB124B1B681846C6
:100CC00000F0B4F9012000F0FBF80346002B09D036
:100CD0000C4B1B6801330B4A13600A4B1B68184608
:100CE00000F0A4F9002000F0EBF80346002B52D0EE
:100CF000014B04221A604EE0C8000020CC00002006
:100D0000D0000020D8000020D4000020C000002027
:100D1000C4000020DC000020E0000020380100209A
:100D200000080140012204211D4801F088F800223A
:100D300001211B4801F083F801220821184801F025
:100D40007EF800220221164801F079F801221021D4
:100D5000134801F074F801222021114801F06FF8C6
:100D6000104B1B68012B18D10E4B00221A600E4B42
:100D700001221A60012201210C4801F060F80122D1
:100D800002210A4801F05BF807E000BF06E000BF5F
:100D900004E000BF02E000BF00E000BF00BF80BD74
:100DA00000080140E4000020C8000020000C0140C1
:100DB00080B500AF1E4B1B68022B26D0022B34DC03
:100DC000002B02D0012B10D02FE000221021194857
:100DD00001F035F801220421164801F030F8012213
:100DE0000121144801F02BF820E0012210211148C4
:100DF00001F025F8002204210E4801F020F801221C
:100E000001210C4801F01BF810E0012210210948D3
:100E100001F015F801220421064801F010F8002223
:100E20000121044801F00BF800E000BF00BF80BDC5
:100E3000DC0000200008014080B500AF1E4B1B689D
:100E4000022B26D0022B34DC002B02D0012B10D039
:100E50002FE001222021194800F0F1FF0122082192
:100E6000164800F0ECFF00220221144800F0E7FFD2
:100E700020E001222021114800F0E1FF002208219A
:100E80000E4800F0DCFF012202210C4800F0D7FFE1
:100E900010E000222021094800F0D1FF01220821A2
:100EA000064800F0CCFF01220221044800F0C7FFF1
:100EB00000E000BF00BF80BDE0000020000801404E
:100EC00080B483B000AF7860094A7B6852F8233061
:100ED000012B06D1064A7B68002142F8231001232A
:100EE00000E0002318460C37BD4680BC704700BFA9
:100EF000E400002080B582B000AF00237B607CE07E
:100F0000424A7B6852F8232041497B6841F82320FC
:100F1000404A7B6852F823203C497B6841F82320F3
:100F20007868FFF767FA02460B464FF000004FF073
:100F3000804101F09BFF4FF00002374BFFF7C4FAEE
:100F400002460B4610461946FFF76EFD03469BB25C
:100F50001946324800F05CFF034619462D4A7B686B
:100F600042F823102A4A7B6852F8232027497B68DD
:100F700051F823309A423DD1244A7B6852F823200D
:100F800024497B6851F823309A4233D1244A7B6844
:100F900052F823201F497B6851F823309A4217D01A
:100FA0001C4A7B6852F823201D497B6841F82320A6
:100FB000184A7B6852F82330002B1BD1194A7B68F2
:100FC000012142F82310184B4FF496721A6011E079
:100FD000154B1B68013B144A1360134B1B68002B15
:100FE00008D10C4A7B6852F82330002B02D10E4BFB
:100FF00064221A607B6801337B607B68022B7FF779
:101000007FAF00BF00BF0837BD4680BD0C00002089
:1010100000000020180000200000C0400010014027
:1010200024000020E40000203000002080B582B0C1
:1010300000AF78607B68002B27D100224021CF4889
:1010400000F0FDFE00228021CC4800F0F8FE0022D6
:101050004FF48071C94800F0F2FE00224FF4007195
:10106000C64800F0ECFE00224FF48061C34800F057
:10107000E6FE00224FF40061C04800F0E0FE0122CD
:101080004FF48051BD4800F0DAFE7B68012B27D178
:1010900001224021B94800F0D2FE00228021B74849
:1010A00000F0CDFE00224FF48071B44800F0C7FE7E
:1010B00001224FF40071B14800F0C1FE01224FF44B
:1010C0008061AE4800F0BBFE01224FF40061AB48E6
:1010D00000F0B5FE01224FF48051A84800F0AFFEA9
:1010E0007B68022B27D100224021A44800F0A7FEF4
:1010F00000228021A14800F0A2FE01224FF480715D
:101100009E4800F09CFE00224FF400719B4800F0C6
:1011100096FE00224FF48061984800F090FE012274
:101120004FF40061954800F08AFE00224FF4805190
:10113000924800F084FE7B68032B27D100224021D7
:101140008E4800F07CFE002280218C4800F077FE63
:1011500000224FF48071894800F071FE00224FF4A4
:101160000071864800F06BFE01224FF480618348D5
:1011700000F065FE01224FF40061804800F05FFE40
:1011800000224FF480517D4800F059FE7B68042B0B
:1011900027D101224021794800F051FE0022802110
:1011A000764800F04CFE00224FF48071734800F046
:1011B00046FE01224FF40071704800F040FE01220B
:1011C0004FF480616D4800F03AFE00224FF4006158
:1011D0006A4800F034FE00224FF48051674800F066
:1011E0002EFE7B68052B27D100224021634800F0AA
:1011F00026FE01228021614800F021FE00224FF4EA
:1012000080715E4800F01BFE00224FF400715B48C5
:1012100000F015FE01224FF48061584800F00FFEE7
:1012200000224FF40061554800F009FE00224FF4FF
:101230008051524800F003FE7B68062B27D1002224
:1012400040214E4800F0FBFD012280214B4800F078
:10125000F6FD00224FF48071484800F0F0FD0022B6
:101260004FF40071454800F0EAFD00224FF4806120
:10127000424800F0E4FD00224FF400613F4800F0D6
:10128000DEFD00224FF480513C4800F0D8FD7B6821
:10129000072B27D100224021384800F0D0FD002242
:1012A0008021364800F0CBFD00224FF48071334896
:1012B00000F0C5FD01224FF40071304800F0BFFD81
:1012C00001224FF480612D4800F0B9FD01224FF456
:1012D00000612A4800F0B3FD01224FF480512748F5
:1012E00000F0ADFD7B68082B27D100224021234868
:1012F00000F0A5FD00228021204800F0A0FD002282
:101300004FF480711D4800F09AFD00224FF40071E7
:101310001A4800F094FD00224FF48061174800F055
:101320008EFD00224FF40061144800F088FD002279
:101330004FF48051114800F082FD7B68092B2CD1BD
:10134000002240210D4800F07AFD002280210B4848
:1013500000F075FD00224FF48071084800F06FFD29
:1013600001224FF40071054800F069FD01224FF49D
:101370008061024800F063FD02E000BF0008014008
:1013800000224FF40061074800F059FD00224FF49D
:101390008051044800F053FD00BF00BF0837BD4630
:1013A00080BD00BF0008014080B582B000AF78600A
:1013B0007B68002B03D07B68012B0BD015E000224B
:1013C00001210C4800F03BFD01220221094800F0F8
:1013D00036FD0AE000220221064800F030FD01221D
:1013E0000121044800F02BFD00BF00BF0837BD46B7
:1013F00080BD00BF000C014080B582B000AF7860B6
:1014000000F0B8F900F0D4F9FFF774FD00BF083719
:10141000BD4680BD80B500AF00F00EFA074B00223C
:101420001A6000F00FF800F095F800F047F8044853
:1014300001F056F9FFF718FBFCE700BFC8000020D9
:10144000F000002080B590B000AF07F1180328220B
:101450000021184601F002FD3B1D00221A605A606F
:101460009A60DA601A610223BB610123BB62102318
:10147000FB6200237B6307F11803184600F0F8FCB9
:101480000346002B01D000F0D5F80F237B6000232A
:10149000BB600023FB6000233B6100237B613B1D9D
:1014A0000021184600F066FF0346002B01D000F033
:1014B000C1F800BF4037BD4680BD000080B586B092
:1014C00000AF07F1080300221A605A609A60DA60E0
:1014D0003B4600221A605A601D4B4FF080421A6052
:1014E0001B4B41F63F725A60194B00229A60184B11
:1014F0000922DA60164B00221A61154B00229A610C
:10150000134801F09DF80346002B01D000F092F83B
:101510004FF48053BB6007F1080319460C4801F0F3
:1015200033FA0346002B01D000F084F800233B601F
:1015300000237B603B461946054801F0FBFB034650
:10154000002B01D000F076F800BF1837BD4680BDF3
:10155000F000002080B588B000AF07F11003002232
:101560001A605A609A60DA602E4B9B692D4A43F0EC
:10157000100393612B4B9B6903F01003FB60FB6826
:10158000284B9B69274A43F004039361254B9B69D1
:1015900003F00403BB60BB68224B9B69214A43F004
:1015A000080393611F4B9B6903F008037B607B6812
:1015B000002241F6FF711C4800F041FC002203218B
:1015C0001A4800F03CFC4FF460433B6100237B6110
:1015D0000123BB6107F110031946154800F09CFA7E
:1015E00041F6FF733B6101237B610023BB61022352
:1015F000FB6107F1100319460B4800F08DFA032335
:101600003B6101237B610023BB610223FB6107F186
:1016100010031946054800F07FFA00BF2037BD4689
:1016200080BD00BF0010024000080140000C0140D6
:101630000010014080B400AF72B600BFFEE70000AA
:1016400080B483B000AF0E4B9B690D4A43F0010399
:1016500093610B4B9B6903F001037B607B68084B34
:10166000DB69074A43F08053D361054BDB6903F024
:1016700080533B603B6800BF0C37BD4680BC704761
:101680000010024080B584B000AF78607B681B68B2
:10169000B3F1804F13D10C4BDB690B4A43F00103CC
:1016A000D361094BDB6903F00103FB60FB68002297
:1016B00000211C2000F0F9F91C2000F012FA00BFF4
:1016C0001037BD4680BD00BF0010024080B400AF9F
:1016D000FEE780B400AFFEE780B400AFFEE780B461
:1016E00000AFFEE780B400AFFEE780B400AF00BFFC
:1016F000BD4680BC704780B400AF00BFBD4680BC13
:10170000704780B400AF00BFBD4680BC704780B555
:1017100000AF00F0D7F800BF80BD000080B500AF7B
:10172000024801F029F800BF80BD00BFF000002092
:1017300080B400AF00BFBD4680BC704780B483B0AA
:1017400000AF78607B68084A82FB03129210DB17B7
:10175000D31A064A1360064B00221A6000BF0C37EA
:10176000BD4680BC704700BF676666663C010020CE
:101770003801002080B483B000AF78600A4B1B684A
:10178000002B0BDD084B1B68013B074A1360064B1F
:101790001B68002B02DC054B01221A6000BF0C37CE
:1017A000BD4680BC704700BF3C01002038010020CE
:1017B00080B483B000AF78600A4B1B68002B0BDD50
:1017C000084B1B68013B074A1360064B1B68002B44
:1017D00002DC054B01221A6000BF0C37BD4680BCFD
:1017E000704700BF44010020400100200C480D4913
:1017F0000D4A002302E0D458C4500433C4188C426C
:10180000F9D30A4A0A4C002301E013600432A242D1
:10181000FBD3FFF78DFF01F0FDFAFFF7FBFD7047EB
:1018200000000020A4000020A83C0008A400002024
:101830004C010020FEE7000080B500AF084B1B689C
:10184000074A43F010031360032000F023F90F2030
:1018500000F008F8FFF7F4FE0023184680BD00BF33
:101860000020024080B582B000AF7860124B1A6849
:10187000124B1B7819464FF47A73B3FBF1F3B2FBAA
:10188000F3F3184600F03BF90346002B01D0012387
:101890000EE07B680F2B0AD8002279684FF0FF30EA
:1018A00000F003F9064A7B681360002300E001237F
:1018B00018460837BD4680BD340000203C0000209B
:1018C0003800002080B400AF054B1B781A46054B4A
:1018D0001B681344034A136000BFBD4680BC7047B9
:1018E0003C0000204801002080B400AF024B1B6880
:1018F0001846BD4680BC70474801002080B485B0C2
:1019000000AF78607B6803F00703FB600C4BDB687B
:10191000BB60BA684FF6FF031340BB60FB681A0256
:10192000BB68134343F0BF6343F40033BB60044A16
:10193000BB68D36000BF1437BD4680BC704700BF92
:1019400000ED00E080B400AF044BDB681B0A03F03D
:1019500007031846BD4680BC704700BF00ED00E09D
:1019600080B483B000AF0346FB7197F90730002BBA
:101970000BDBFB7903F01F02064997F907305B097F
:10198000012000FA02F241F8232000BF0C37BD46C7
:1019900080BC704700E100E080B483B000AF034634
:1019A0003960FB7197F90730002B0ADB3B68DAB22C
:1019B0000C4997F907301201D2B20B4483F8002387
:1019C0000AE03B68DAB20849FB7903F00F03043BF5
:1019D0001201D2B20B441A7600BF0C37BD4680BC50
:1019E000704700BF00E100E000ED00E080B489B086
:1019F00000AFF860B9607A60FB6803F00703FB6131
:101A0000FB69C3F10703042B28BF0423BB61FB69F7
:101A10000433062B02D9FB69033B00E000237B6102
:101A20004FF0FF32BB6902FA03F3DA43BB681A4096
:101A30007B699A404FF0FF317B6901FA03F3D94388
:101A40007B680B40134318462437BD4680BC704763
:101A500080B582B000AF78607B68013BB3F1807FD6
:101A600001D301230FE00A4A7B68013B53600F2139
:101A70004FF0FF30FFF790FF054B00229A60044BB8
:101A800007221A60002318460837BD4680BD00BFF4
:101A900010E000E080B582B000AF78607868FFF7B2
:101AA0002DFF00BF0837BD4680BD80B586B000AFB2
:101AB0000346B9607A60FB7300237B61FFF742FF46
:101AC00078617A68B9687869FFF790FF024697F9FC
:101AD0000F3011461846FFF75FFF00BF1837BD46AD
:101AE00080BD80B582B000AF0346FB7197F9073027
:101AF0001846FFF735FF00BF0837BD4680BD80B5EB
:101B000082B000AF78607868FFF7A2FF03461846FE
:101B10000837BD4680BD000080B48BB000AF786050
:101B2000396000237B6200233B6261E101227B6A12
:101B300002FA03F3FB613B681B68FA691340BB615F
:101B4000BA69FB699A4240F050813B685B68974AEA
:101B500093425ED0954A934275D8954A934258D0A5
:101B6000934A93426FD8934A934252D0914A9342F8
:101B700069D8914A93424CD08F4A934263D88F4A96
:101B8000934246D08D4A93425DD8122B2AD8122B0D
:101B900059D801A252F823F0131C0008ED1B0008CD
:101BA000FF1B0008411C0008471C0008471C0008D8
:101BB000471C0008471C0008471C0008471C000879
:101BC000471C0008471C0008471C0008471C000869
:101BD000471C0008471C0008471C0008F51B0008AC
:101BE000091C0008764A934213D02CE03B68DB685E
:101BF0003B6229E03B68DB6804333B6224E03B68DE
:101C0000DB6808333B621FE03B68DB680C333B62F8
:101C10001AE03B689B68002B02D104233B6213E06F
:101C20003B689B68012B05D108233B627B68FA69FE
:101C30001A6109E008233B627B68FA695A6103E094
:101C400000233B6200E000BFBB69FF2B01D87B682B
:101C500001E07B6804337B61BB69FF2B02D87B6AA0
:101C60009B0002E07B6A083B9B003B617B691A6832
:101C70000F213B6901FA03F3DB431A40396A3B69E0
:101C800001FA03F31A437B691A603B685B6803F04F
:101C90008053002B00F0A9804A4B9B69494A43F0CE
:101CA00001039361474B9B6903F00103BB60BB6871
:101CB000454A7B6A9B08023352F82330FB607B6AFB
:101CC00003F003039B000F2202FA03F3DB43FA68DD
:101CD0001340FB607B683D4A93420DD07B683C4AD1
:101CE000934207D07B683B4A934201D1022304E030
:101CF000032302E0012300E000237A6A02F00302DA
:101D000092009340FA681343FB602F497B6A9B085B
:101D10000233FA6841F823203B685B6803F48033A0
:101D2000002B06D02C4B1A682B49BB6913430B6060
:101D300006E0294B1A68BB69DB43274913400B6057
:101D40003B685B6803F40033002B06D0224B5A68D3
:101D50002149BB6913434B6006E01F4B5A68BB69BE
:101D6000DB431D4913404B603B685B6803F4801301
:101D7000002B06D0184B9A681749BB6913438B6038
:101D800006E0154B9A68BB69DB43134913408B602F
:101D90003B685B6803F40013002B1FD00E4BDA681E
:101DA0000D49BB691343CB601FE000BF0000321038
:101DB000000031100000221000002110000012105D
:101DC0000000111000100240000001400008014016
:101DD000000C014000100140000401400B4BDA6888
:101DE000BB69DB4309491340CB607B6A01337B62EB
:101DF0003B681A687B6A22FA03F3002B7FF496AEE5
:101E000000BF00BF2C37BD4680BC704700040140B6
:101E100080B485B000AF78600B467B807B689A68A1
:101E20007B881340002B02D00123FB7301E00023C9
:101E3000FB73FB7B18461437BD4680BC704780B4EB
:101E400083B000AF78600B467B8013467B707B7855
:101E5000002B03D07A887B681A6103E07B881A0420
:101E60007B681A6100BF0C37BD4680BC704700001C
:101E700080B586B000AF78607B68002B01D101236C
:101E800072E27B681B6803F00103002B00F087807F
:101E9000924B5B6803F00C03042B0CD08F4B5B68F8
:101EA00003F00C03082B12D18C4B5B6803F48033D6
:101EB000B3F5803F0BD1894B1B6803F40033002B33
:101EC0006CD07B685B68002B68D101234CE27B6897
:101ED0005B68B3F5803F06D1804B1B687F4A43F4B3
:101EE000803313602EE07B685B68002B0CD17B4B4A
:101EF0001B687A4A23F480331360784B1B68774A57
:101F000023F4802313601DE07B685B68B3F5A02F8A
:101F10000CD1724B1B68714A43F4802313606F4BE2
:101F20001B686E4A43F4803313600BE06B4B1B68F5
:101F30006A4A23F480331360684B1B68674A23F4B2
:101F4000802313607B685B68002B13D0FFF7CCFC09
:101F5000386108E0FFF7C8FC02463B69D31A642BDE
:101F600001D9032300E25D4B1B6803F40033002B0F
:101F7000F0D014E0FFF7B8FC386108E0FFF7B4FCDC
:101F800002463B69D31A642B01D90323ECE1534B7E
:101F90001B6803F40033002BF0D100E000BF7B6826
:101FA0001B6803F00203002B63D04C4B5B6803F00B
:101FB0000C03002B0BD0494B5B6803F00C03082B80
:101FC0001CD1464B5B6803F48033002B16D1434B86
:101FD0001B6803F00203002B05D07B681B69012BF3
:101FE00001D00123C0E13D4B1B6823F0F8027B6860
:101FF0005B69DB00394913430B603AE07B681B697E
:10200000002B20D0364B01221A60FFF76DFC38619F
:1020100008E0FFF769FC02463B69D31A022B01D99D
:102020000323A1E12D4B1B6803F00203002BF0D02A
:102030002A4B1B6823F0F8027B685B69DB002749A9
:1020400013430B6015E0264B00221A60FFF74CFC8F
:10205000386108E0FFF748FC02463B69D31A022BBF
:1020600001D9032380E11D4B1B6803F00203002B01
:10207000F0D17B681B6803F00803002B3AD07B6823
:102080009B69002B19D0174B01221A60FFF72CFC1B
:10209000386108E0FFF728FC02463B69D31A022B9F
:1020A00001D9032360E10D4B5B6A03F00203002BAF
:1020B000F0D0012000F0A6FA1CE00A4B00221A60C2
:1020C000FFF712FC38610FE0FFF70EFC02463B6998
:1020D000D31A022B08D9032346E100BF00100240A7
:1020E0000000424280044242924B5B6A03F00203CA
:1020F000002BE9D17B681B6803F00403002B00F080
:10210000A6800023FB758B4BDB6903F08053002B0B
:102110000DD1884BDB69874A43F08053D361854BEF
:10212000DB6903F08053BB60BB680123FB75824B06
:102130001B6803F48073002B18D17F4B1B687E4A09
:1021400043F480731360FFF7CFFB386108E0FFF7BB
:10215000CBFB02463B69D31A642B01D9032303E16D
:10216000754B1B6803F48073002BF0D07B68DB6831
:10217000012B06D16F4B1B6A6E4A43F001031362B9
:102180002DE07B68DB68002B0CD16A4B1B6A694A27
:1021900023F001031362674B1B6A664A23F00403B2
:1021A00013621CE07B68DB68052B0CD1614B1B6A5A
:1021B000604A43F0040313625E4B1B6A5D4A43F0BE
:1021C000010313620BE05B4B1B6A5A4A23F00103C5
:1021D0001362584B1B6A574A23F0040313627B684F
:1021E000DB68002B15D0FFF77FFB38610AE0FFF7B3
:1021F0007BFB02463B69D31A41F28832934201D9F4
:102200000323B1E04B4B1B6A03F00203002BEED01B
:1022100014E0FFF769FB38610AE0FFF765FB02464F
:102220003B69D31A41F28832934201D903239BE0E0
:10223000404B1B6A03F00203002BEED1FB7D012B08
:1022400005D13C4BDB693B4A23F08053D3617B686B
:10225000DB69002B00F08780364B5B6803F00C03D2
:10226000082B61D07B68DB69022B46D1334B0022FF
:102270001A60FFF739FB386108E0FFF735FB0246CB
:102280003B69D31A022B01D903236DE0294B1B684C
:1022900003F00073002BF0D17B681B6AB3F5803F1D
:1022A00008D1244B5B6823F400327B689B6821498A
:1022B00013434B601F4B5B6823F474127B68196AED
:1022C0007B685B6A0B431B4913434B601B4B01222A
:1022D0001A60FFF709FB386108E0FFF705FB0246CB
:1022E0003B69D31A022B01D903233DE0114B1B6834
:1022F00003F00073002BF0D035E0104B00221A6081
:10230000FFF7F2FA386108E0FFF7EEFA02463B69A0
:10231000D31A022B01D9032326E0064B1B6803F0D6
:102320000073002BF0D11EE07B68DB69012B07D125
:10233000012319E00010024000700040600042429A
:102340000B4B5B68FB60FB6803F480327B681B6AA5
:102350009A4206D1FB6803F470127B685B6A9A426A
:1023600001D0012300E0002318461837BD4680BD88
:102370000010024080B584B000AF786039607B689F
:10238000002B01D10123D0E06A4B1B6803F0070347
:102390003A689A4210D9674B1B6823F007026549D7
:1023A0003B6813430B60634B1B6803F007033A68F9
:1023B0009A4201D00123B8E07B681B6803F0020356
:1023C000002B20D07B681B6803F00403002B05D092
:1023D000594B5B68584A43F4E06353607B681B6861
:1023E00003F00803002B05D0534B5B68524A43F4BB
:1023F00060535360504B5B6823F0F0027B689B682E
:102400004D4913434B607B681B6803F00103002BAD
:1024100040D07B685B68012B07D1474B1B6803F4F6
:102420000033002B15D101237FE07B685B68022B12
:1024300007D1414B1B6803F00073002B09D1012326
:1024400073E03D4B1B6803F00203002B01D1012315
:102450006BE0394B5B6823F003027B685B683649AD
:1024600013434B60FFF740FAF8600AE0FFF73CFACD
:102470000246FB68D31A41F28832934201D9032302
:1024800053E02D4B5B6803F00C027B685B689B009C
:102490009A42EBD1274B1B6803F007033A689A4234
:1024A00010D2244B1B6823F0070222493B681343D8
:1024B0000B60204B1B6803F007033A689A4201D077
:1024C000012332E07B681B6803F00403002B08D073
:1024D000194B5B6823F4E0627B68DB6816491343A1
:1024E0004B607B681B6803F00803002B09D0124B7C
:1024F0005B6823F460527B681B69DB000E49134361
:102500004B6000F021F802460B4B5B681B0903F09F
:102510000F030A49CB5C22FA03F3094A1360094B03
:102520001B681846FFF79EF9002318461037BD4672
:1025300080BD00BF0020024000100240603C000847
:10254000340000203800002090B48AB000AF294B3E
:102550003C1D0FCB84E80F0040F201233B80002399
:10256000FB610023BB6100237B6200237B610023AE
:102570003B62214B5B68FB61FB6903F00C03042B9E
:1025800002D0082B03D02BE01C4B3B622BE0FB69F5
:102590009B0C03F00F0328333B4413F8243C7B616E
:1025A000FB6903F48033002B12D0134B5B685B0C88
:1025B00003F0010328333B4413F8283CBB617B69DB
:1025C0000E4A03FB02F2BB69B2FBF3F37B6204E049
:1025D0007B690B4A02FB03F37B627B6A3B6202E08E
:1025E000064B3B6200BF3B6A18462837BD4690BC8D
:1025F000704700BF503C00080010024000127A00F3
:1026000000093D0080B485B000AF78600A4B1B68BC
:102610000A4AA2FB03235B0A7A6802FB03F3FB600E
:1026200000BFFB685A1EFA60002BF9D100BF00BF43
:102630001437BD4680BC704734000020D34D621073
:1026400080B582B000AF78607B68002B01D1012398
:1026500041E07B6893F83D30DBB2002B06D17B680C
:10266000002283F83C207868FFF70CF87B68022290
:1026700083F83D207B681A687B680433194610464E
:1026800000F06AFA7B68012283F846207B68012209
:1026900083F83E207B68012283F83F207B6801227B
:1026A00083F840207B68012283F841207B68012267
:1026B00083F842207B68012283F843207B68012253
:1026C00083F844207B68012283F845207B6801223F
:1026D00083F83D20002318460837BD4680BD000022
:1026E00080B485B000AF78607B6893F83D30DBB292
:1026F000012B01D0012335E07B68022283F83D20C5
:102700007B681B68DA687B681B6842F00102DA604C
:102710007B681B68164A934209D07B681B68B3F13B
:10272000804F04D07B681B68124A934211D17B68AA
:102730001B689B6803F00703FB60FB68062B10D047
:102740007B681B681A687B681B6842F001021A608C
:1027500007E07B681B681A687B681B6842F001020F
:102760001A60002318461437BD4680BC704700BF6E
:10277000002C01400004004080B582B000AF7860BA
:102780007B681B681B6903F00203022B22D17B6864
:102790001B68DB6803F00203022B1BD17B681B68FC
:1027A0006FF002021A617B6801221A777B681B684E
:1027B0009B6903F00303002B03D0786800F0B1F9A4
:1027C00005E0786800F0A4F9786800F0B3F97B6858
:1027D00000221A777B681B681B6903F00403042B33
:1027E00022D17B681B68DB6803F00403042B1BD138
:1027F0007B681B686FF004021A617B6802221A77FB
:102800007B681B689B6903F44073002B03D07868D6
:1028100000F087F905E0786800F07AF9786800F050
:1028200089F97B6800221A777B681B681B6903F0B3
:102830000803082B22D17B681B68DB6803F00803C0
:10284000082B1BD17B681B686FF008021A617B683C
:1028500004221A777B681B68DB6903F00303002BF3
:1028600003D0786800F05DF905E0786800F050F971
:10287000786800F05FF97B6800221A777B681B6834
:102880001B6903F01003102B22D17B681B68DB68E7
:1028900003F01003102B1BD17B681B686FF0100234
:1028A0001A617B6808221A777B681B68DB6903F46E
:1028B0004073002B03D0786800F033F905E07868A6
:1028C00000F026F9786800F035F97B6800221A7765
:1028D0007B681B681B6903F00103012B0ED17B6829
:1028E0001B68DB6803F00103012B07D17B681B68C1
:1028F0006FF001021A617868FEF77EFD7B681B6845
:102900001B6903F08003802B0ED17B681B68DB689A
:1029100003F08003802B07D17B681B686FF0800277
:102920001A61786800F067FA7B681B681B6903F01E
:102930004003402B0ED17B681B68DB6803F040032B
:10294000402B07D17B681B686FF040021A617868E2
:1029500000F0F9F87B681B681B6903F02003202B4B
:102960000ED17B681B68DB6803F02003202B07D1A6
:102970007B681B686FF020021A61786800F032FAF9
:1029800000BF0837BD4680BD80B584B000AF786019
:1029900039607B6893F83C30012B01D10223B3E00E
:1029A0007B68012283F83C207B68022283F83D206B
:1029B0007B681B689B68FB60FB6823F07703FB6008
:1029C000FB6823F47F43FB607B681B68FA689A60AE
:1029D0003B681B68B3F5005F3ED0B3F5005F00F2C3
:1029E0008780B3F5805F00F08580B3F5805F7FD886
:1029F000702B1AD0702B7BD8602B50D0602B77D8DF
:102A0000502B3CD0502B73D8402B58D0402B6FD834
:102A1000302B64D0302B6BD8202B60D0202B67D884
:102A2000002B5CD0102B5AD062E07B6818683B68A2
:102A300099683B685A683B68DB6800F05CF97B6822
:102A40001B689B68FB60FB6843F07703FB607B6857
:102A50001B68FA689A604EE07B6818683B68996862
:102A60003B685A683B68DB6800F045F97B681B6887
:102A70009A687B681B6842F480429A603BE07B68FE
:102A800018683B6859683B68DB681A4600F0BCF878
:102A90007B681B685021184600F013F92BE07B6817
:102AA00018683B6859683B68DB681A4600F0DAF83A
:102AB0007B681B686021184600F003F91BE07B6807
:102AC00018683B6859683B68DB681A4600F09CF858
:102AD0007B681B684021184600F0F3F80BE07B6828
:102AE0001A683B681B681946104600F0EAF802E0D5
:102AF00000BF00E000BF7B68012283F83D207B68B7
:102B0000002283F83C20002318461037BD4680BDC4
:102B100080B483B000AF786000BF0C37BD4680BC86
:102B2000704780B483B000AF786000BF0C37BD46FB
:102B300080BC704780B483B000AF786000BF0C37B2
:102B4000BD4680BC704780B483B000AF786000BFE2
:102B50000C37BD4680BC704780B485B000AF78604C
:102B600039607B681B68FB607B68254A934207D00D
:102B70007B68B3F1804F03D07B68224A934208D12F
:102B8000FB6823F07003FB603B685B68FA681343E3
:102B9000FB607B681A4A934207D07B68B3F1804F91
:102BA00003D07B68174A934208D1FB6823F4407333
:102BB000FB603B68DB68FA681343FB60FB6823F04B
:102BC00080023B685B691343FB607B68FA681A60AC
:102BD0003B689A687B68DA623B681A687B689A622D
:102BE0007B68074A934203D13B681A697B681A6382
:102BF0007B6801225A6100BF1437BD4680BC704714
:102C0000002C01400004004080B487B000AFF860A1
:102C1000B9607A60FB681B6A7B61FB681B6A23F002
:102C20000102FB681A62FB689B693B613B6923F008
:102C3000F0033B617B681B013A6913433B617B698D
:102C400023F00A037B617A69BB6813437B61FB68ED
:102C50003A699A61FB687A691A6200BF1C37BD46FF
:102C600080BC704780B487B000AFF860B9607A600C
:102C7000FB681B6A23F01002FB681A62FB689B6901
:102C80007B61FB681B6A3B617B6923F470437B615A
:102C90007B681B037A6913437B613B6923F0A003C4
:102CA0003B61BB681B013A6913433B61FB687A696E
:102CB0009A61FB683A691A6200BF1C37BD4680BC46
:102CC000704780B485B000AF786039607B689B68DE
:102CD000FB60FB6823F07003FB603A68FB681343FA
:102CE00043F00703FB607B68FA689A6000BF143703
:102CF000BD4680BC704780B487B000AFF860B96053
:102D00007A603B60FB689B687B617B6923F47F434F
:102D10007B613B681A027B681A43BB6813437A697C
:102D200013437B61FB687A699A6000BF1C37BD461C
:102D300080BC704780B485B000AF786039607B6834
:102D400093F83C30012B01D1022341E07B68012242
:102D500083F83C207B68022283F83D207B681B6857
:102D60005B68FB607B681B689B68BB60FB6823F04B
:102D70007003FB603B681B68FA681343FB607B6869
:102D80001B68FA685A607B681B68144A934209D032
:102D90007B681B68B3F1804F04D07B681B68104AC6
:102DA00093420CD1BB6823F08003BB603B685B6837
:102DB000BA681343BB607B681B68BA689A607B681B
:102DC000012283F83D207B68002283F83C20002309
:102DD00018461437BD4680BC704700BF002C014028
:102DE0000004004080B483B000AF786000BF0C37AF
:102DF000BD4680BC704780B483B000AF786000BF30
:102E00000C37BD4680BC7047014B1868704700BF47
:102E10004000002070B500260C4D0D4C641BA41022
:102E2000A64209D100F006FF00260A4D0A4C641B99
:102E3000A410A64205D170BD55F8043B9847013651
:102E4000EEE755F8043B98470136F2E7A03C00084E
:102E5000A03C0008A03C0008A43C00080346024433
:102E6000934200D1704703F8011BF9E72DE9F843BD
:102E700014461D468046894600F062F82246064602
:102E80000F462B4620462946FDF7B8FDC8BB002259
:102E9000002340464946FDF77FFDB8B100220023DC
:102EA00020462946FDF778FD002841D120462946D5
:102EB00000F03BFE28B30022002320462946FDF700
:102EC00075FDF0B1FFF7A0FF222319E03046394627
:102ED00000F02BFEC8B94046494600F026FEA0B1DE
:102EE0002046294600F021FE78B132463B46304666
:102EF0003946FDF783FD0028E4D0FFF785FF212345
:102F0000036030463946BDE8F8830022002330468E
:102F10003946FDF741FD0028F3D04046494600F010
:102F200004FE0028EDD02046294600F0FEFDC8E74B
:102F30000026014FE5E700BF0000F03F0000000061
:102F40002DE9F04F93B0CDE90223DDE9022727F008
:102F50000046894656EA0201804611D1031889F4D9
:102F6000002252419942824B934180F0B984DDE9BD
:102F7000022340464946FDF7F1F883468C466FE050
:102F80007C4B29F000449C424D46824606DC01D130
:102F90000028ECD19E4201DC0FD172B105F1404511
:102FA00005F5801555EA0A05E1D1DDE90232DB18A5
:102FB00082F4002252419D42D5E7002D39DA6E4B52
:102FC0009E4252DCA3F154739E4240F39C8433151D
:102FD000A3F2FF33142B0FDDC3F1340322FA03F104
:102FE00001FA03F3934240F08E8401F00101C1F134
:102FF0000203009382B15DE0002A59D1C3F11403AA
:1030000046FA03F101FA03F3B34240F0798401F088
:103010000101C1F102030093584B9E4232D1002FAF
:1030200080F26A8442464B4600205449FDF776FB05
:10303000A3E700230093002A3CD14E4B9E42EBD1E4
:1030400004F1404303F5801353EA0A0300F0488477
:103050004B4B9C420BDD002FC0F24884DDE902BCE3
:103060005846614613B0BDE8F08F0223E2E7002F17
:103070004FF0000B4FF0000CF2DADDE902B303F180
:10308000004CEDE7B7F1804F06D142464B46404633
:103090004946FDF719FA70E73A4B9F420AD1002DD5
:1030A00008DB4046494613B0BDE8F04F00F05EBC77
:1030B000002300934046494600F034FD83468C4689
:1030C000BAF1000F28D124B12C4B25F040429A428E
:1030D00022D1002F07DA5A46634600202749FDF720
:1030E0001DFB83468C46002DBADA009B04F1404458
:1030F00004F58014234308D15A4663465846614676
:10310000FDF72AF802460B4690E7009B012BA7D15A
:103110000CF100439C46A3E7EB0F013B0C930C9A88
:10312000009B134304D142464B4640464946E7E7DD
:10313000154B9E4240F3F68003F104739E42104B00
:1031400009DD9C420CDC002F0CDA002013B0BDE836
:10315000F04F00F0E2BC9C42F5DB084B9C4215DDD1
:10316000002FF2DC002013B0BDE8F04F00F0D0BC1F
:103170000000F0FF0000F07FFFFF3F430000F03F42
:10318000FFFFEF3F0000E03F0000E041614600220A
:1031900058465F4BFCF7E0FF55A3D3E900230446F4
:1031A0000D46FDF791F954A3D3E9002306460F46D7
:1031B00020462946FDF788F9002282468B462046A4
:1031C0002946544BFDF780F902460B464CA1D1E944
:1031D0000001FCF7C1FF22462B46FDF775F90246B8
:1031E0000B4600204C49FCF7B7FF22462B46804691
:1031F000894620462946FDF767F902460B464046B8
:103200004946FDF761F940A3D3E90023FDF75CF9D6
:1032100002460B4650465946FCF79EFF4FF0000A07
:1032200002460B4604460D4630463946FCF796FFEB
:1032300032463B4650468B46FCF78EFF02460B4615
:1032400020462946FCF788FFDDE90267009B0C9ABF
:10325000013B13434FF000064FF000020CBF2F4B11
:103260002B4B04460D46DDE90201CDE90023324631
:103270003B46FCF771FF52465B46FDF725F9DDE959
:1032800002238046894620462946FDF71DF902465D
:103290000B4640464946FCF761FF32463B468046B6
:1032A000894650465946FDF70FF904460D460B4630
:1032B000024649464046CDE90245FCF74FFF184B10
:1032C000824699420F460E4640F3E58201F13F43A4
:1032D00003F5E003034300F0DF81DDE90001002294
:1032E0000023FDF763FB003818BF01202EE700BF65
:1032F000000000604715F73F44DF5DF80BAE543E19
:10330000555555555555D53FFE822B654715F73F09
:103310000000F03F0000D03F0000E03F0000F0BFA1
:10332000FFFF8F40D24B00222B4043B958466146E5
:10333000D04BFDF7C9F86FF0340283460C462315D5
:10334000A3F2FF3313440B93CB4BC4F3130444F0A9
:103350007F559C4245F4401508DDC84B9C4240F324
:1033600099810B9BA5F5801501330B930026F30083
:103370000D93C34B584603EBC603D3E900342946EB
:103380001A46CDE908342346FCF7E6FEDA462B461A
:103390005246CDE90E01DDE90801FCF7DFFE0246E9
:1033A0000B460020B749FDF7B9F902460B46CDE9B7
:1033B0001001DDE90E01FDF787F8CDE90601DDE931
:1033C0000634CDE9043400230022AB466D1045F0ED
:1033D0000055049305F50025DDE9048905EB8643D6
:1033E0004046494614461D46FDF76EF802460B4618
:1033F000DDE90E01FCF7B0FEDDE9082306460F46C5
:1034000020462946FCF7A8FE02460B465046594680
:10341000FCF7A2FE42464B46FDF756F802460B4625
:1034200030463946FCF798FEDDE91023FDF74CF8ED
:10343000DDE90623CDE9080110461946FDF744F8F9
:1034400079A3D3E9002304460D46FDF73DF878A3A0
:10345000D3E90023FCF782FE22462B46FDF734F821
:1034600075A3D3E90023FCF779FE22462B46FDF72E
:103470002BF873A3D3E90023FCF770FE22462B46FA
:10348000FDF722F870A3D3E90023FCF767FE22467C
:103490002B46FDF719F86EA3D3E90023FCF75EFE77
:1034A000224606460F462B4620462946FDF70CF8D5
:1034B00002460B4630463946FDF706F804460D46EF
:1034C000DDE9060142464B46FCF748FEDDE90823EC
:1034D000FCF7FAFF22462B46FCF740FE4246064622
:1034E0000F464B4640464946FCF7EEFF0022664B2E
:1034F00082468B46FCF732FE32463B46FCF72EFEF8
:1035000000240D4622460B4640464946FCF7DCFFA8
:10351000002280468946204629465B4BFCF71CFE6C
:1035200052465B46FCF718FE02460B4630463946CB
:10353000FCF712FEDDE90623FCF7C6FF224606462D
:103540000F46DDE908012B46FCF7BEFF02460B469D
:1035500030463946FCF702FE002406460F46024676
:103560000B4640464946FCF7F9FD3BA3D3E900234F
:1035700020460D46FCF7A8FF42464B46CDE9060122
:1035800020462946FCF7E8FD02460B463046394600
:10359000FCF7E2FD32A3D3E90023FCF795FF32A349
:1035A000D3E9002306460F4620462946FCF78CFF48
:1035B00002460B4630463946FCF7D0FD0D9A334B98
:1035C0004FF0000A1344D3E90023FCF7C7FD8046FF
:1035D0000B988946FCF70EFF04460D460D9A2C4BBE
:1035E0001344D3E900674246DDE906014B46FCF788
:1035F000B5FD32463B46FCF7B1FD22462B46FCF7B3
:10360000ADFD22462B4650468B46FCF7A5FD3246C3
:103610003B46FCF7A1FDDDE90623FCF79DFD0246D4
:103620000B46404649460DE6EF4E454A287ECA3FC6
:1036300065DBC9934A86CD3F01411DA96074D13F26
:103640004D268F515555D53FFFAB6FDBB66DDB3F38
:10365000033333333333E33F000000E009C7EE3F69
:10366000FD033ADC09C7EE3FF5015B14E02F3EBED7
:103670000000F07F000040438E98030079B60B00F5
:10368000703C00080000F03F00000840903C00083B
:10369000803C000801266AE69DA3D3E9002340464A
:1036A0004946FCF75BFD2246CDE904012B46504616
:1036B0003946FCF751FD02460B46DDE90401FDF7F2
:1036C00093F900287FF409AEA34A26F00043934201
:1036D00040F301814FF4801A00201B15A3F2FE3342
:1036E0004AFA03F33344C3F30A529C4FA2F2FF3267
:1036F0001741C3F3130A23EA0701C2F114024AF483
:10370000801A0B464AFA02FA002E02462946204643
:10371000B8BFCAF1000AFCF71FFDCDE90201DDE9DF
:103720000201002442464B46FCF718FD7AA3D3E978
:10373000002320460D46FCF7C7FEDDE902230646BE
:103740000F4620462946FCF707FD02460B46404639
:103750004946FCF701FD72A3D3E90023FCF7B4FE50
:1037600071A3D3E900238046894620462946FCF709
:10377000ABFE02460B4640464946FCF7EFFC0446CA
:103780000D4602460B4630463946FCF7E7FC32460A
:103790003B4680468946FCF7DFFC02460B46204646
:1037A0002946FCF7D9FC424606460F464B464046A2
:1037B0004946FCF789FE5EA3D3E9002304460D4683
:1037C000FCF782FE5CA3D3E90023FCF7C5FC22468C
:1037D0002B46FCF779FE5AA3D3E90023FCF7BEFC85
:1037E00022462B46FCF770FE57A3D3E90023FCF7D3
:1037F000B3FC22462B46FCF767FE55A3D3E9002312
:10380000FCF7ACFC22462B46FCF75EFE02460B465C
:1038100040464946FCF7A0FC04460D4602460B46CE
:1038200040464946FCF750FE0022CDE902014FF028
:10383000804320462946FCF78FFC02460B46DDE913
:103840000201FCF76BFF324604460D463B464046FC
:103850004946FCF739FE32463B46FCF77FFC024600
:103860000B4620462946FCF777FC42464B46FCF7C0
:1038700073FC02460B4600203949FCF76DFC01EB56
:103880000A54B4F5801F29DA524600F055F9DDE9F3
:103890000023FFF7FEBB334B21F000479F427FF729
:1038A00013AF314B0B44034309D0DDE90001002283
:1038B0000023FDF77BF8003818BF012053E42246AF
:1038C0002B46FCF749FC42464B46FDF783F800289F
:1038D0003FF4FAAEE9E74FF0000A20E72146D6E7C9
:1038E0004FF0000BDFF878C0FFF7BABB4FF0000BCA
:1038F0004FF0000CFFF7B4BB40464946FFF73DBB15
:103900000092FFF789BB0023FFF773BBAFF3008082
:10391000FE822B654715973C00000000432EE63FD2
:10392000EF39FAFE422EE63F396CA80C615C20BEEE
:10393000D0A4BE726937663EF16BD2C541BDBB3EB5
:103940002CDE25AF6A56113F93BDBE166CC1663F93
:103950003E5555555555C53F0000E03FFFFF0F0050
:103960000000F03FFFCB904000346F3FDFF858C1BC
:103970002DE9F0413CEA010C06460D460C460A468C
:10398000074603460FD102460B46FCF79DFD024653
:103990000B4630462946FCF7E1FB06460D4630460D
:1039A0002946BDE8F08100290EDC21F0004C5CEADC
:1039B0000707F4D041B102460B46FCF7CDFB0246A7
:1039C0000B46FCF7ABFEE8E7211575D0CC074FF0AE
:1039D0000004C2F31302A1F2FF3742F480125EBF6B
:1039E000D90F5B0001EB4202D90F01EB4202162511
:1039F00020464FF400117F105B0046189642DEBF50
:103A0000921B701864185200013D02EBD3724FEA0A
:103A100051014FEA4303F0D129464FF0200E4FF0F9
:103A20000046824206EB050C02DC13D19C4511D8FE
:103A3000BCF1000F0CEB060543DA002D41DB00F171
:103A40000108121A40469C4588BF02F1FF32A3EBE1
:103A50000C0331444FEAD37CBEF1010E0CEB420261
:103A60004FEA43034FEA5606DBD1134306D0481C06
:103A70000BBF71460131013421F001016310490887
:103A800003F17F53E20703F5001348BF41F0004103
:103A90000E4603EB075582E7DA0A15385B05002A64
:103AA000FAD0D5020AD5C1F1200423FA04F44D1E40
:103AB0008B402243411B89E70846F0E75200013161
:103AC000EFE78046BDE700BF0000F07F70B5044619
:103AD0000D461646FFF798F929460660204670BD48
:103AE00037B515461C4680B1104603F10041CDE9BB
:103AF0000001DDE9002328462146FCF7E5FC2222EF
:103B000003B0BDE83040FFF7E1BF10461946EEE7CD
:103B100000224FF08053FFF7E3BF00224FF0E04355
:103B2000FFF7DEBF21F00041704741F0004000F593
:103B30008010C00F70470000F8B5C1F30A56044664
:103B40000D4617460B4696B921F00043034339D082
:103B5000334B0022FCF7B8FC324B04469F420D4623
:103B60000FDA2BA3D3E90023FCF7AEFC06E040F20A
:103B7000FF7296420AD10246FCF7F0FA04460D465F
:103B800020E00B46C1F30A51A1F1360640F2FE7265
:103B9000B91991420EDD05F0004444F0FC4141F4B6
:103BA0005F1141F41051204841F03C011AA3D3E9C0
:103BB0000023D9E7002908DD23F0FF4323F4E003C5
:103BC00043EA015520462946F8BD11F1350F12DAB6
:103BD0004CF250339F424FEAD5734FEAC374DCDC9A
:103BE0000BA3D3E9002344F0D27141F4B7310F485D
:103BF00041F01F01B8E723F0FF43363123F4E0031F
:103C000043EA0155204629460022094BACE700BF94
:103C100059F3F8C21F6EA5019C7500883CE4377EFD
:103C200000005043B03CFFFF9C75008859F3F8C278
:103C30000000903CF8B500BFF8BC08BC9E46704739
:0C3C4000F8B500BFF8BC08BC9E467047F9
:103C500002030405060708090A0B0C0D0E0F1010CD
:103C6000000000000000000001020304060708092C
:103C7000000000000000F03F000000000000F83FDE
:103C800000000000000000000000004003B8E23F18
:103C9000000000000000000006D0CF43EBFD4C3ECA
:043CA00035010008E2
:043CA4001101000802
:103CA800010000000000000000000000010000000A
:103CB80000000000000000000100000000000000FB
:103CC80000000000010000000000000000000000EB
:103CD8002C0100000024F400100000000100000086
:103CE8004400002000000000000000000000000068
:103CF80000000000000000000000000000000000BC
:103D080000000000000000000000000000000000AB
:103D1800000000000000000000000000000000009B
:103D2800000000000000000000000000000000008B
:103D3800000000000000000000000000000000007B
:043D48000000000077
:04000005080017EDEB
:00000001FF
