:020000040800F2
:1000000000280020011B0008A9190008AF190008EA
:10001000B5190008BB190008C1190008000000004C
:10002000000000000000000000000000C7190008E8
:10003000D319000800000000DF190008EB190008C0
:10004000491B0008491B0008491B0008491B000800
:10005000491B0008491B0008491B0008491B0008F0
:10006000491B0008491B0008491B0008491B0008E0
:10007000491B0008491B0008491B0008491B0008D0
:10008000491B0008491B0008491B0008491B0008C0
:10009000491B0008491B0008491B0008491B0008B0
:1000A000491B0008491B0008491B0008491B0008A0
:1000B000F9190008491B000800000000491B00084E
:1000C000491B00080000000000000000491B000858
:1000D00000000000491B0008491B00080000000048
:1000E000491B0008491B0008491B000800000000CC
:1000F0000000000000000000000000000000000000
:0C01000000000000000000005FF808F1A3
:1001100010B5054C237833B9044B13B10448AFF341
:1001200000800123237010BDA40000200000000007
:10013000743F000808B5034B1BB103490348AFF3F4
:10014000008008BD00000000A8000020743F0008E7
:1001500081F0004102E000BF83F0004330B54FEA78
:1001600041044FEA430594EA050F08BF90EA020FE5
:100170001FBF54EA000C55EA020C7FEA645C7FEA78
:10018000655C00F0E2804FEA5454D4EB5555B8BF9B
:100190006D420CDD2C4480EA020281EA030382EA0C
:1001A000000083EA010180EA020281EA0303362D9E
:1001B00088BF30BD11F0004F4FEA01314FF4801C71
:1001C0004CEA113102D0404261EB410113F0004F83
:1001D0004FEA03334CEA133302D0524263EB43033A
:1001E00094EA050F00F0A780A4F10104D5F1200ED8
:1001F0000DDB02FA0EFC22FA05F2801841F1000133
:1002000003FA0EF2801843FA05F359410EE0A5F106
:1002100020050EF1200E012A03FA0EFC28BF4CF037
:10022000020C43FA05F3C01851EBE37101F00045ED
:1002300007D54FF0000EDCF1000C7EEB00006EEBFA
:100240000101B1F5801F1BD3B1F5001F0CD3490884
:100250005FEA30004FEA3C0C04F101044FEA4452DB
:1002600012F5800F80F09A80BCF1004F08BF5FEA62
:10027000500C50F1000041EB045141EA050130BD42
:100280005FEA4C0C404141EB0101013C28BFB1F554
:10029000801FE9D291F0000F04BF01460020B1FA9F
:1002A00081F308BF2033A3F10B03B3F120020CDA72
:1002B0000C3208DD02F1140CC2F10C0201FA0CF050
:1002C00021FA02F10CE002F11402D8BFC2F1200CB5
:1002D00001FA02F120FA0CFCDCBF41EA0C0190406B
:1002E000E41AA2BF01EB0451294330BD6FEA0404B4
:1002F0001F3C1CDA0C340EDC04F11404C4F120029F
:1003000020FA04F001FA02F340EA030021FA04F3B0
:1003100045EA030130BDC4F10C04C4F1200220FA07
:1003200002F001FA04F340EA0300294630BD21FA45
:1003300004F0294630BD94F0000F83F4801306BF0B
:1003400081F480110134013D4EE77FEA645C18BFFF
:100350007FEA655C29D094EA050F08BF90EA020F96
:1003600005D054EA000C04BF1946104630BD91EA8E
:10037000030F1EBF0021002030BD5FEA545C05D191
:100380004000494128BF41F0004130BD14F58004D0
:100390003CBF01F5801130BD01F0004545F0FE4144
:1003A00041F470014FF0000030BD7FEA645C1ABF79
:1003B000194610467FEA655C1CBF0B46024650EAB0
:1003C000013406BF52EA033591EA030F41F40021DC
:1003D00030BD00BF90F0000F04BF0021704730B562
:1003E0004FF4806404F132044FF000054FF0000137
:1003F00050E700BF90F0000F04BF0021704730B5F8
:100400004FF4806404F1320410F0004548BF4042CC
:100410004FF000013EE700BF42004FEAE2014FEA21
:1004200031014FEA02701FBF12F07F4393F07F4FFC
:1004300081F06051704732F07F4208BF704793F0FF
:100440007F4F04BF41F40021704730B54FF4607412
:1004500001F0004521F000411CE700BF50EA010215
:1004600008BF704730B54FF000050AE050EA0102BE
:1004700008BF704730B511F0004502D5404261EB2E
:1004800041014FF4806404F132045FEA915C3FF46F
:10049000D8AE4FF003025FEADC0C18BF03325FEA0C
:1004A000DC0C18BF033202EBDC02C2F1200300FABD
:1004B00003FC20FA02F001FA03FE40EA0E0021FAE2
:1004C00002F11444BDE600BF70B54FF0FF0C4CF4D0
:1004D000E06C1CEA11541DBF1CEA135594EA0C0F82
:1004E00095EA0C0F00F0DEF82C4481EA030621EABD
:1004F0004C5123EA4C5350EA013518BF52EA0335F8
:1005000041F4801143F4801338D0A0FB02CE4FF0A9
:100510000005E1FB02E506F00042E0FB03E54FF0D9
:100520000006E1FB03569CF0000F18BF4EF0010ED1
:10053000A4F1FF04B6F5007F64F5407404D25FEACD
:100540004E0E6D4146EB060642EAC62141EA555180
:100550004FEAC52040EA5E504FEACE2EB4F1FD0CC2
:1005600088BFBCF5E06F1ED8BEF1004F08BF5FEA40
:10057000500E50F1000041EB045170BD06F00046F2
:1005800046EA010140EA020081EA0301B4EB5C049F
:10059000C2BFD4EB0C0541EA045170BD41F4801197
:1005A0004FF0000E013C00F3AB8014F1360FDEBFBC
:1005B000002001F0004170BDC4F10004203C35DA98
:1005C0000C341BDC04F11404C4F1200500FA05F31B
:1005D00020FA04F001FA05F240EA020001F00042BC
:1005E00021F0004110EBD37021FA04F642EB060132
:1005F0005EEA430E08BF20EAD37070BDC4F10C045C
:10060000C4F1200500FA04F320FA05F001FA04F21F
:1006100040EA020001F0004110EBD37041F100010B
:100620005EEA430E08BF20EAD37070BDC4F1200516
:1006300000FA05F24EEA020E20FA04F301FA05F27E
:1006400043EA020321FA04F001F0004121FA04F226
:1006500020EA020000EBD3705EEA430E08BF20EAF6
:10066000D37070BD94F0000F0FD101F00046400030
:1006700041EB010111F4801F08BF013CF7D041EAB2
:10068000060195F0000F18BF704703F000465200B6
:1006900043EB030313F4801F08BF013DF7D043EA87
:1006A0000603704794EA0C0F0CEA135518BF95EA3D
:1006B0000C0F0CD050EA410618BF52EA4306D1D1C4
:1006C00081EA030101F000414FF0000070BD50EAE3
:1006D000410606BF1046194652EA430619D094EA6D
:1006E0000C0F02D150EA013613D195EA0C0F05D157
:1006F00052EA03361CBF104619460AD181EA0301AB
:1007000001F0004141F0FE4141F470014FF0000062
:1007100070BD41F0FE4141F4780170BD70B54FF0FD
:10072000FF0C4CF4E06C1CEA11541DBF1CEA13557D
:1007300094EA0C0F95EA0C0F00F0A7F8A4EB05045F
:1007400081EA030E52EA03354FEA013100F0888056
:100750004FEA03334FF0805545EA131343EA12631F
:100760004FEA022245EA111545EA10654FEA0026D4
:100770000EF000419D4208BF964244F1FD0404F58D
:10078000407402D25B084FEA3202B61A65EB0305E9
:100790005B084FEA32024FF480104FF4002CB6EBA6
:1007A000020E75EB030E22BFB61A754640EA0C0026
:1007B0005B084FEA3202B6EB020E75EB030E22BF66
:1007C000B61A754640EA5C005B084FEA3202B6EBA7
:1007D000020E75EB030E22BFB61A754640EA9C0066
:1007E0005B084FEA3202B6EB020E75EB030E22BF36
:1007F000B61A754640EADC0055EA060E18D04FEAF4
:10080000051545EA16754FEA06164FEAC30343EA93
:1008100052734FEAC2025FEA1C1CC0D111F4801F60
:100820000BD141EA00014FF000004FF0004CB6E759
:1008300011F4801F04BF01430020B4F1FD0C88BFF8
:10084000BCF5E06F3FF6AFAEB5EB030C04BFB6EB03
:10085000020C5FEA500C50F1000041EB045170BDF6
:100860000EF0004E4EEA113114EB5C04C2BFD4EB23
:100870000C0541EA045170BD41F480114FF0000EA7
:10088000013C90E645EA060E8DE60CEA135594EA23
:100890000C0F08BF95EA0C0F3FF43BAF94EA0C0F26
:1008A0000AD150EA01347FF434AF95EA0C0F7FF49B
:1008B00025AF104619462CE795EA0C0F06D152EAEF
:1008C00003353FF4FDAE1046194622E750EA4106D3
:1008D00018BF52EA43067FF4C5AE50EA41047FF4E4
:1008E0000DAF52EA43057FF4EBAE12E74FF0FF3C49
:1008F00006E000BF4FF0010C02E000BF4FF0010C1A
:100900004DF804CD4FEA410C7FEA6C5C4FEA430C92
:1009100018BF7FEA6C5C1BD001B050EA410C0CBFE1
:1009200052EA430C91EA030F02BF90EA020F002043
:10093000704710F1000F91EA030F58BF994208BFAA
:1009400090422CBFD8176FEAE37040F00100704767
:100950004FEA410C7FEA6C5C02D150EA013C07D1BE
:100960004FEA430C7FEA6C5CD6D152EA033CD3D009
:100970005DF8040B704700BF8446104662468C4603
:100980001946634600E000BF01B5FFF7B7FF002836
:1009900048BF10F1000F01BD4DF808EDFFF7F4FF5F
:1009A0000CBF012000205DF808FB00BF4DF808EDEA
:1009B000FFF7EAFF34BF012000205DF808FB00BF0D
:1009C0004DF808EDFFF7E0FF94BF012000205DF82F
:1009D00008FB00BF4DF808EDFFF7CEFF94BF0120E4
:1009E00000205DF808FB00BF4DF808EDFFF7C4FFDD
:1009F00034BF012000205DF808FB00BF4FEA410C26
:100A00007FEA6C5C02D150EA013C0AD14FEA430C08
:100A10007FEA6C5C02D152EA033C02D14FF0000045
:100A200070474FF0010070474A0011D212F50012D2
:100A300011D20DD56FF47873B3EB62520ED44FEA36
:100A4000C12343F0004343EA505323FA02F07047B6
:100A50004FF00000704750EA013002D14FF0FF30F4
:100A600070474FF00000704780B500AF8F4B1B6898
:100A7000042B00F2EF8201A252F823F0910A000841
:100A8000DF0A00081B0C0008A90D0008050F00086C
:100A9000874B00221A60874B03221A60864B012283
:100AA0001A60864B03221A604FF47A7000F0B4FF8C
:100AB000804B1B68824A1360804B1B68814A13601D
:100AC0007F4B1B68184600F01FFC7F4B00221A600A
:100AD0007E4B00221A60754B01221A60C3E200208F
:100AE00000F0D0FD764B1B68184600F00DFC784BEB
:100AF0001B68012B6CD1724B1B68013B704A136061
:100B0000704B1B68013B6F4A13606D4B1B681846A6
:100B100000F0FAFB6A4B1B68002B26DA6A4B1B6855
:100B2000022B10D0022B13DC002B02D0012B05D09E
:100B30000EE0614B1B68624A13600AE05F4B1B6862
:100B40005F4A136005E05B4B1B685D4A136000E081
:100B500000BF5D4B1B6801335B4A13605A4B1B6837
:100B6000022B02DD584B00221A60564B1B68002BEB
:100B700026DA564B1B68022B10D0022B13DC002BFD
:100B800002D0012B05D00EE04B4B1B684D4A136081
:100B90000AE0484B1B684B4A136005E0474B1B6853
:100BA000484A136000E000BF484B1B680133474AC6
:100BB0001360464B1B68022B02DD444B00221A6077
:100BC00000F064FA00F0A6FA4FF47A7000F024FF07
:100BD000002000F0E3FA0346002B00F03D824FF4C2
:100BE0007A7000F019FF4FF47A7000F04FFF2F4B2E
:100BF00002221A6000221021364801F0AAFA0022CF
:100C00002021344801F0A5FA002000F03BFD294BDB
:100C10001B68184600F078FB1EE2012204212D48D3
:100C200001F097FA012201212A4801F092FA0122EB
:100C30000821284801F08DFA01220221254801F0FF
:100C400088FA234B1B68012B0BD11021214801F09E
:100C500098FA20211F4801F094FA4FF47A7000F0BE
:100C6000DBFE1D4B1B68012B3FD1114B1B68002B7A
:100C700002D0012B09D010E0002000F003FD0D4B45
:100C80001B68184600F040FB07E0012000F0FAFC6A
:100C9000064B1B68184600F037FB054B1B68002B02
:100CA0001CD0034B00221A601BE000BFC8000020CC
:100CB000CC000020D0000020D8000020D40000206C
:100CC000C0000020C4000020DC000020E000002064
:100CD000380100200008014040010020AD4B0122F6
:100CE0001A604FF47A7000F0D1FE012000F056FA3D
:100CF0000346002B10D0A84B1B680133A64A136093
:100D0000A54B1B68092B02DDA34B00221A60A24BE6
:100D10001B68184600F0F8FA022000F03FFA03467C
:100D2000002B1CD09D4B01221A604FF47A7000F00A
:100D300073FE984B00221A60974B1B68984A136009
:100D4000984B1B68984A1360954B1B68184600F037
:100D5000DBFA964B00221A60954B00221A600020A5
:100D600000F01CFA0346002B00F078814FF47A70F3
:100D700000F052FE4FF47A7000F088FE874B032299
:100D80001A60002204218B4801F0E3F900220821B7
:100D9000884801F0DEF9002000F074FC864B1B68E7
:100DA000184600F0B1FA59E101220121814801F011
:100DB000D0F9012202217F4801F0CBF90122102154
:100DC0007C4801F0C6F9012220217A4801F0C1F9DE
:100DD0007A4B1B68012B0BD10421764801F0D1F925
:100DE0000821744801F0CDF94FF47A7000F014FE38
:100DF000734B1B68012B26D1664B1B68002B02D05E
:100E0000012B09D010E0002000F03CFC6A4B1B686D
:100E1000184600F079FA07E0012000F033FC5F4B40
:100E20001B68184600F070FA5A4B1B68002B03D061
:100E3000584B00221A6002E0564B01221A604FF410
:100E40007A7000F023FE012000F0A8F90346002B81
:100E500010D0594B1B680133574A1360564B1B681F
:100E6000092B02DD544B00221A60534B1B681846B5
:100E700000F04AFA022000F091F90346002B1CD042
:100E80004FF47A7000F0C8FD424B00221A60424BCA
:100E90001B68434A1360434B1B68434A1360404B33
:100EA0001B68184600F030FA404B00221A60404B95
:100EB00000221A60394B01221A60002000F06EF9FE
:100EC0000346002B00F0CC804FF47A7000F0A4FDB4
:100ED0004FF47A7000F0DAFD00220121354801F06C
:100EE00038F900220221334801F033F92B4B042258
:100EF0001A60002000F0C6FB2A4B1B68184600F061
:100F000003FAADE0012204212A4801F022F901226E
:100F10000821284801F01DF901221021254801F07F
:100F200018F901222021234801F013F9234B1B68F3
:100F3000012B0BD101211F4801F023F902211D488B
:100F400001F01FF94FF47A7000F066FD1C4B1B682E
:100F5000012B3ED10F4B1B68002B02D0012B09D077
:100F600010E0002000F08EFB134B1B68184600F0C9
:100F7000CBF907E0012000F085FB084B1B68184601
:100F800000F0C2F9034B1B68002B1BD0014B002261
:100F90001A601AE0CC000020D0000020C800002019
:100FA000C0000020D4000020C4000020DC0000208D
:100FB000E000002000080140D80000203801002097
:100FC00040010020294B01221A604FF47A7000F092
:100FD0005DFD012000F0E2F80346002B10D0244B09
:100FE0001B680133224A1360214B1B68092B02DD69
:100FF0001F4B00221A601E4B1B68184600F084F934
:10100000022000F0CBF80346002B05D1002000F0B1
:10101000C5F80346002B25D0164B01221A604FF469
:101020007A7000F0F9FC114B00221A60124B1B6819
:10103000124A13600E4B1B68114A13600F4B1B685A
:10104000184600F061F90F4B00221A600E4B002287
:101050001A6007E000BF06E000BF04E000BF02E046
:1010600000BF00E000BF00BF80BD00BFCC0000207B
:10107000D4000020C8000020D0000020C0000020C4
:10108000C4000020DC000020E000002080B500AF9C
:101090001E4B1B68022B26D0022B34DC002B02D007
:1010A000012B10D02FE000221021194801F051F837
:1010B00001220421164801F04CF8012201211448B4
:1010C00001F047F820E001221021114801F041F819
:1010D000002204210E4801F03CF8012201210C48B5
:1010E00001F037F810E001221021094801F031F831
:1010F00001220421064801F02CF8002201210448B5
:1011000001F027F800E000BF00BF80BDDC00002038
:101110000008014080B500AF1E4B1B68022B26D093
:10112000022B34DC002B02D0012B10D02FE0012247
:101130002021194801F00DF801220821164801F07C
:1011400008F800220221144801F003F820E00122EF
:101150002021114800F0FDFF002208210E4800F078
:10116000F8FF012202210C4800F0F3FF10E00022FA
:101170002021094800F0EDFF01220821064800F077
:10118000E8FF01220221044800F0E3FF00E000BF75
:1011900000BF80BDE00000200008014080B483B0A3
:1011A00000AF7860094A7B6852F82330012B06D1E2
:1011B000064A7B68002142F82310012300E0002347
:1011C00018460C37BD4680BC704700BFE4000020C5
:1011D00080B582B000AF00237B607CE0424A7B6830
:1011E00052F8232041497B6841F82320404A7B681C
:1011F00052F823203C497B6841F823207868FFF7A8
:10120000F9F802460B464FF000004FF0804101F024
:10121000CFFF4FF00002374BFFF756F902460B465F
:1012200010461946FFF700FC03469BB219463248A8
:1012300000F078FF034619462D4A7B6842F82310D8
:101240002A4A7B6852F8232027497B6851F82330CB
:101250009A423DD1244A7B6852F8232024497B6876
:1012600051F823309A4233D1244A7B6852F8232024
:101270001F497B6851F823309A4217D01C4A7B687B
:1012800052F823201D497B6841F82320184A7B68C7
:1012900052F82330002B1BD1194A7B68012142F8F8
:1012A0002310184B4FF496721A6011E0154B1B680F
:1012B000013B144A1360134B1B68002B08D10C4AE6
:1012C0007B6852F82330002B02D10E4B64221A6047
:1012D0007B6801337B607B68022B7FF77FAF00BFA9
:1012E00000BF0837BD4680BD0C0000200000002074
:1012F000180000200000C040001001402400002021
:10130000E40000203000002080B582B000AF78609B
:101310007B68002B27D100224021CF4800F019FF25
:1013200000228021CC4800F014FF00224FF480718D
:10133000C94800F00EFF00224FF40071C64800F0CB
:1013400008FF00224FF48061C34800F002FF002232
:101350004FF40061C04800F0FCFE01224FF48051C0
:10136000BD4800F0F6FE7B68012B27D10122402109
:10137000B94800F0EEFE00228021B74800F0E9FEF7
:1013800000224FF48071B44800F0E3FE01224FF4D4
:101390000071B14800F0DDFE01224FF48061AE48DB
:1013A00000F0D7FE01224FF40061AB4800F0D1FEFF
:1013B00001224FF48051A84800F0CBFE7B68022B3D
:1013C00027D100224021A44800F0C3FE0022802142
:1013D000A14800F0BEFE01224FF480719E4800F04B
:1013E000B8FE00224FF400719B4800F0B2FE0022CC
:1013F0004FF48061984800F0ACFE01224FF4006188
:10140000954800F0A6FE00224FF48051924800F06B
:10141000A0FE7B68032B27D1002240218E4800F0DC
:1014200098FE002280218C4800F093FE00224FF4A9
:101430008071894800F08DFE00224FF400718648CB
:1014400000F087FE01224FF48061834800F081FEA6
:1014500001224FF40061804800F07BFE00224FF42F
:1014600080517D4800F075FE7B68042B27D1012256
:101470004021794800F06DFE00228021764800F07E
:1014800068FE00224FF48071734800F062FE012272
:101490004FF40071704800F05CFE01224FF480614F
:1014A0006D4800F056FE00224FF400616A4800F0DB
:1014B00050FE00224FF48051674800F04AFE7B68DE
:1014C000052B27D100224021634800F042FE012273
:1014D0008021614800F03DFE00224FF480715E489B
:1014E00000F037FE00224FF400715B4800F031FE3F
:1014F00001224FF48061584800F02BFE00224FF487
:101500000061554800F025FE00224FF480515248FA
:1015100000F01FFE7B68062B27D1002240214E4899
:1015200000F017FE012280214B4800F012FE00223D
:101530004FF48071484800F00CFE00224FF4007117
:10154000454800F006FE00224FF48061424800F05A
:1015500000FE00224FF400613F4800F0FAFD002237
:101560004FF480513C4800F0F4FD7B68072B27D1F5
:1015700000224021384800F0ECFD0022802136484E
:1015800000F0E7FD00224FF48071334800F0E1FDE8
:1015900001224FF40071304800F0DBFD01224FF4CE
:1015A00080612D4800F0D5FD01224FF400612A48EA
:1015B00000F0CFFD01224FF48051274800F0C9FD13
:1015C0007B68082B27D100224021234800F0C1FD71
:1015D00000228021204800F0BCFD00224FF48071E1
:1015E0001D4800F0B6FD00224FF400711A4800F0CB
:1015F000B0FD00224FF48061174800F0AAFD0022E0
:101600004FF40061144800F0A4FD00224FF4805113
:10161000114800F09EFD7B68092B2CD1002240214F
:101620000D4800F096FD002280210B4800F091FD4E
:1016300000224FF48071084800F08BFD01224FF426
:101640000071054800F085FD01224FF480610248D9
:1016500000F07FFD02E000BF0008014000224FF4CF
:101660000061074800F075FD00224FF480510448E6
:1016700000F06FFD00BF00BF0837BD4680BD00BF52
:101680000008014080B582B000AF78607B68002B15
:1016900003D07B68012B0BD015E0002201210C4800
:1016A00000F057FD01220221094800F052FD0AE036
:1016B00000220221064800F04CFD012201210448CD
:1016C00000F047FD00BF00BF0837BD4680BD00BF2A
:1016D000000C014080B582B000AF786000F0B8F92E
:1016E00000F0F0F9FFF774FD00BF0837BD4680BD7C
:1016F00080B500AF00F02AFA074B00221A6000F014
:101700000FF800F095F800F047F8044801F08AF966
:10171000FFF7AAF9FCE700BFC8000020F000002096
:1017200080B590B000AF07F11803282200211846B9
:1017300001F036FD3B1D00221A605A609A60DA60A3
:101740001A610223BB610123BB621023FB620023E9
:101750007B6307F11803184600F02CFD0346002BAD
:1017600001D000F0D5F80F237B600023BB6000237D
:10177000FB6000233B6100237B613B1D0021184679
:1017800000F09AFF0346002B01D000F0C1F800BF23
:101790004037BD4680BD000080B586B000AF07F180
:1017A000080300221A605A609A60DA603B46002201
:1017B0001A605A601D4B4FF080421A601B4B41F675
:1017C0003F725A60194B00229A60184B0922DA6066
:1017D000164B00221A61154B00229A61134801F042
:1017E000D1F80346002B01D000F092F84FF480535B
:1017F000BB6007F1080319460C4801F067FA03467D
:10180000002B01D000F084F800233B6000237B60B4
:101810003B461946054801F02FFC0346002B01D03A
:1018200000F076F800BF1837BD4680BDF0000020FC
:1018300080B588B000AF07F1100300221A605A602B
:101840009A60DA602E4B9B692D4A43F01003936136
:101850002B4B9B6903F01003FB60FB68284B9B69D3
:10186000274A43F004039361254B9B6903F004036B
:10187000BB60BB68224B9B69214A43F0080393611C
:101880001F4B9B6903F008037B607B68002241F6D5
:10189000FF711C4800F05DFC002203211A4800F093
:1018A00058FC4FF460433B6100237B610123BB6123
:1018B00007F110031946154800F0B8FA41F6FF7316
:1018C0003B6101237B610023BB610223FB6107F1C4
:1018D000100319460B4800F0A9FA03233B610123CA
:1018E0007B610023BB610223FB6107F110031946F2
:1018F000054800F09BFA00BF2037BD4680BD00BF01
:101900000010024000080140000C0140001001409E
:1019100080B400AF72B600BFFEE7000080B483B0B1
:1019200000AF0E4B9B690D4A43F0010393610B4BD3
:101930009B6903F001037B607B68084BDB69074A06
:1019400043F08053D361054BDB6903F080533B6068
:101950003B6800BF0C37BD4680BC7047001002409A
:1019600080B584B000AF78607B681B68B3F1804FAE
:1019700013D10C4BDB690B4A43F00103D361094BD4
:10198000DB6903F00103FB60FB68002200211C20DF
:1019900000F015FA1C2000F02EFA00BF1037BD46EB
:1019A00080BD00BF0010024080B400AFFEE780B4ED
:1019B00000AFFEE780B400AFFEE780B400AFFEE703
:1019C00080B400AFFEE780B400AF00BFBD4680BC6E
:1019D000704780B400AF00BFBD4680BC704780B484
:1019E00000AF00BFBD4680BC704780B500AF00F0BF
:1019F000F3F800BF80BD000080B500AF024801F0E1
:101A00005DF800BF80BD00BFF000002080B400AFD3
:101A100000BFBD4680BC704780B483B000AF786023
:101A20007B68084A82FB03129210DB17D31A064A1E
:101A30001360064B00221A6000BF0C37BD4680BC05
:101A4000704700BF676666663C01002038010020D1
:101A500080B483B000AF78600A4B1B68002B0BDDAD
:101A6000084B1B68013B074A1360064B1B68002BA1
:101A700002DC054B01221A6000BF0C37BD4680BC5A
:101A8000704700BF3C0100203801002080B483B0C3
:101A900000AF78607B68084A82FB03129210DB1764
:101AA000D31A064A1360064B00221A6000BF0C3797
:101AB000BD4680BC704700BF676666664401002073
:101AC0004001002080B483B000AF78600A4B1B68EF
:101AD000002B0BDD084B1B68013B074A1360064BCC
:101AE0001B68002B02DC054B01221A6000BF0C377B
:101AF000BD4680BC704700BF44010020400100206B
:101B00000C480D490D4A002302E0D458C450043358
:101B1000C4188C42F9D30A4A0A4C002301E013602E
:101B20000432A242FBD3FFF771FF01F015FBFFF770
:101B3000DFFD704700000020A4000020E83F0008FF
:101B4000A40000204C010020FEE7000080B500AF9B
:101B5000084B1B68074A43F010031360032000F092
:101B600023F90F2000F008F8FFF7D8FE00231846ED
:101B700080BD00BF0020024080B582B000AF786019
:101B8000124B1A68124B1B7819464FF47A73B3FB49
:101B9000F1F3B2FBF3F3184600F03BF90346002BD8
:101BA00001D001230EE07B680F2B0AD80022796850
:101BB0004FF0FF3000F003F9064A7B681360002302
:101BC00000E0012318460837BD4680BD34000020E0
:101BD0003C0000203800002080B400AF054B1B788B
:101BE0001A46054B1B681344034A136000BFBD46E9
:101BF00080BC70473C0000204801002080B400AF4A
:101C0000024B1B681846BD4680BC70474801002047
:101C100080B485B000AF78607B6803F00703FB6099
:101C20000C4BDB68BB60BA684FF6FF031340BB6028
:101C3000FB681A02BB68134343F0BF6343F40033ED
:101C4000BB60044ABB68D36000BF1437BD4680BC8C
:101C5000704700BF00ED00E080B400AF044BDB68CC
:101C60001B0A03F007031846BD4680BC704700BF3F
:101C700000ED00E080B483B000AF0346FB7197F93C
:101C80000730002B0BDBFB7903F01F02064997F9A5
:101C900007305B09012000FA02F241F8232000BF5F
:101CA0000C37BD4680BC704700E100E080B483B0D3
:101CB00000AF03463960FB7197F90730002B0ADB50
:101CC0003B68DAB20C4997F907301201D2B20B44E3
:101CD00083F800230AE03B68DAB20849FB7903F095
:101CE0000F03043B1201D2B20B441A7600BF0C372B
:101CF000BD4680BC704700BF00E100E000ED00E0A1
:101D000080B489B000AFF860B9607A60FB6803F016
:101D10000703FB61FB69C3F10703042B28BF0423FE
:101D2000BB61FB690433062B02D9FB69033B00E06E
:101D300000237B614FF0FF32BB6902FA03F3DA4301
:101D4000BB681A407B699A404FF0FF317B6901FA0A
:101D500003F3D9437B680B40134318462437BD4631
:101D600080BC704780B582B000AF78607B68013B73
:101D7000B3F1807F01D301230FE00A4A7B68013B66
:101D800053600F214FF0FF30FFF790FF054B00220B
:101D90009A60044B07221A60002318460837BD4694
:101DA00080BD00BF10E000E080B582B000AF786079
:101DB0007868FFF72DFF00BF0837BD4680BD80B5AE
:101DC00086B000AF0346B9607A60FB7300237B6185
:101DD000FFF742FF78617A68B9687869FFF790FF8A
:101DE000024697F90F3011461846FFF75FFF00BF14
:101DF0001837BD4680BD80B582B000AF0346FB7189
:101E000097F907301846FFF735FF00BF0837BD4682
:101E100080BD80B582B000AF78607868FFF7A2FF20
:101E2000034618460837BD4680BD000080B48BB01D
:101E300000AF7860396000237B6200233B6261E180
:101E400001227B6A02FA03F3FB613B681B68FA69B3
:101E50001340BB61BA69FB699A4240F050813B680C
:101E60005B68974A93425ED0954A934275D8954AEB
:101E7000934258D0934A93426FD8934A934252D098
:101E8000914A934269D8914A93424CD08F4A9342E7
:101E900063D88F4A934246D08D4A93425DD8122B25
:101EA0002AD8122B59D801A252F823F0271F000874
:101EB000011F0008131F0008551F00085B1F0008C2
:101EC0005B1F00085B1F00085B1F00085B1F00080A
:101ED0005B1F00085B1F00085B1F00085B1F0008FA
:101EE0005B1F00085B1F00085B1F00085B1F0008EA
:101EF000091F00081D1F0008764A934213D02CE0EA
:101F00003B68DB683B6229E03B68DB6804333B628B
:101F100024E03B68DB6808333B621FE03B68DB681A
:101F20000C333B621AE03B689B68002B02D1042310
:101F30003B6213E03B689B68012B05D108233B62A1
:101F40007B68FA691A6109E008233B627B68FA69D9
:101F50005A6103E000233B6200E000BFBB69FF2B36
:101F600001D87B6801E07B6804337B61BB69FF2B90
:101F700002D87B6A9B0002E07B6A083B9B003B61C6
:101F80007B691A680F213B6901FA03F3DB431A40AE
:101F9000396A3B6901FA03F31A437B691A603B68AB
:101FA0005B6803F08053002B00F0A9804A4B9B69CB
:101FB000494A43F001039361474B9B6903F00103D6
:101FC000BB60BB68454A7B6A9B08023352F82330EA
:101FD000FB607B6A03F003039B000F2202FA03F30A
:101FE000DB43FA681340FB607B683D4A93420DD0A7
:101FF0007B683C4A934207D07B683B4A934201D1BD
:10200000022304E0032302E0012300E000237A6AB4
:1020100002F0030292009340FA681343FB602F49D9
:102020007B6A9B080233FA6841F823203B685B68AF
:1020300003F48033002B06D02C4B1A682B49BB6964
:1020400013430B6006E0294B1A68BB69DB43274941
:1020500013400B603B685B6803F40033002B06D031
:10206000224B5A682149BB6913434B6006E01F4B62
:102070005A68BB69DB431D4913404B603B685B6892
:1020800003F48013002B06D0184B9A681749BB69DC
:1020900013438B6006E0154B9A68BB69DB43134919
:1020A00013408B603B685B6803F40013002B1FD068
:1020B0000E4BDA680D49BB691343CB601FE000BFCC
:1020C000000032100000311000002210000021102A
:1020D000000012100000111000100240000001402A
:1020E00000080140000C01400010014000040140C4
:1020F0000B4BDA68BB69DB4309491340CB607B6A51
:1021000001337B623B681A687B6A22FA03F3002B77
:102110007FF496AE00BF00BF2C37BD4680BC704731
:102120000004014080B485B000AF78600B467B802E
:102130007B689A687B881340002B02D00123FB73D5
:1021400001E00023FB73FB7B18461437BD4680BCBF
:10215000704780B483B000AF78600B467B80134635
:102160007B707B78002B03D07A887B681A6103E050
:102170007B881A047B681A6100BF0C37BD4680BC9F
:10218000704780B485B000AF78600B467B807B6879
:10219000DB68FB607A88FB6813401A04FB68D9434C
:1021A0007B880B401A437B681A6100BF1437BD4619
:1021B00080BC704780B586B000AF78607B68002B2C
:1021C00001D1012372E27B681B6803F00103002B3D
:1021D00000F08780924B5B6803F00C03042B0CD05B
:1021E0008F4B5B6803F00C03082B12D18C4B5B68A0
:1021F00003F48033B3F5803F0BD1894B1B6803F4A4
:102200000033002B6CD07B685B68002B68D1012306
:102210004CE27B685B68B3F5803F06D1804B1B685E
:102220007F4A43F4803313602EE07B685B68002BA9
:102230000CD17B4B1B687A4A23F480331360784BB4
:102240001B68774A23F4802313601DE07B685B687A
:10225000B3F5A02F0CD1724B1B68714A43F4802355
:1022600013606F4B1B686E4A43F4803313600BE0BE
:102270006B4B1B686A4A23F480331360684B1B68FE
:10228000674A23F4802313607B685B68002B13D0BC
:10229000FFF7B4FC386108E0FFF7B0FC02463B6989
:1022A000D31A642B01D9032300E25D4B1B6803F4AE
:1022B0000033002BF0D014E0FFF7A0FC386108E0F9
:1022C000FFF79CFC02463B69D31A642B01D9032318
:1022D000ECE1534B1B6803F40033002BF0D100E01A
:1022E00000BF7B681B6803F00203002B63D04C4BDC
:1022F0005B6803F00C03002B0BD0494B5B6803F0C9
:102300000C03082B1CD1464B5B6803F48033002B75
:1023100016D1434B1B6803F00203002B05D07B68EA
:102320001B69012B01D00123C0E13D4B1B6823F049
:10233000F8027B685B69DB00394913430B603AE0C4
:102340007B681B69002B20D0364B01221A60FFF7F7
:1023500055FC386108E0FFF751FC02463B69D31A8F
:10236000022B01D90323A1E12D4B1B6803F00203CB
:10237000002BF0D02A4B1B6823F0F8027B685B69C6
:10238000DB00274913430B6015E0264B00221A603F
:10239000FFF734FC386108E0FFF730FC02463B6988
:1023A000D31A022B01D9032380E11D4B1B6803F0D4
:1023B0000203002BF0D17B681B6803F00803002B9D
:1023C0003AD07B689B69002B19D0174B01221A6009
:1023D000FFF714FC386108E0FFF710FC02463B6988
:1023E000D31A022B01D9032360E10D4B5B6A03F082
:1023F0000203002BF0D0012000F0A6FA1CE00A4BEB
:1024000000221A60FFF7FAFB38610FE0FFF7F6FBD6
:1024100002463B69D31A022B08D9032346E100BFC9
:10242000001002400000424280044242924B5B6A2C
:1024300003F00203002BE9D17B681B6803F004035F
:10244000002B00F0A6800023FB758B4BDB6903F0AB
:102450008053002B0DD1884BDB69874A43F08053B2
:10246000D361854BDB6903F08053BB60BB680123FC
:10247000FB75824B1B6803F48073002B18D17F4BD4
:102480001B687E4A43F480731360FFF7B7FB386123
:1024900008E0FFF7B3FB02463B69D31A642B01D96E
:1024A000032303E1754B1B6803F48073002BF0D00A
:1024B0007B68DB68012B06D16F4B1B6A6E4A43F0C9
:1024C000010313622DE07B68DB68002B0CD16A4BA3
:1024D0001B6A694A23F001031362674B1B6A664A51
:1024E00023F0040313621CE07B68DB68052B0CD12E
:1024F000614B1B6A604A43F0040313625E4B1B6A24
:102500005D4A43F0010313620BE05B4B1B6A5A4ABE
:1025100023F001031362584B1B6A574A23F004034C
:1025200013627B68DB68002B15D0FFF767FB38610F
:102530000AE0FFF763FB02463B69D31A41F2883297
:10254000934201D90323B1E04B4B1B6A03F0020312
:10255000002BEED014E0FFF751FB38610AE0FFF7E3
:102560004DFB02463B69D31A41F28832934201D9AE
:1025700003239BE0404B1B6A03F00203002BEED1C8
:10258000FB7D012B05D13C4BDB693B4A23F080539B
:10259000D3617B68DB69002B00F08780364B5B687A
:1025A00003F00C03082B61D07B68DB69022B46D15A
:1025B000334B00221A60FFF721FB386108E0FFF778
:1025C0001DFB02463B69D31A022B01D903236DE0A0
:1025D000294B1B6803F00073002BF0D17B681B6A4A
:1025E000B3F5803F08D1244B5B6823F400327B684D
:1025F0009B68214913434B601F4B5B6823F47412A3
:102600007B68196A7B685B6A0B431B4913434B6009
:102610001B4B01221A60FFF7F1FA386108E0FFF75F
:10262000EDFA02463B69D31A022B01D903233DE0A0
:10263000114B1B6803F00073002BF0D035E0104BFA
:1026400000221A60FFF7DAFA386108E0FFF7D6FADD
:1026500002463B69D31A022B01D9032326E0064B1D
:102660001B6803F00073002BF0D11EE07B68DB6970
:10267000012B07D1012319E0001002400070004037
:10268000600042420B4B5B68FB60FB6803F48032E6
:102690007B681B6A9A4206D1FB6803F470127B6860
:1026A0005B6A9A4201D0012300E0002318461837E4
:1026B000BD4680BD0010024080B584B000AF786098
:1026C00039607B68002B01D10123D0E06A4B1B6885
:1026D00003F007033A689A4210D9674B1B6823F04E
:1026E000070265493B6813430B60634B1B6803F0AB
:1026F00007033A689A4201D00123B8E07B681B685F
:1027000003F00203002B20D07B681B6803F0040356
:10271000002B05D0594B5B68584A43F4E063536083
:102720007B681B6803F00803002B05D0534B5B68E4
:10273000524A43F460535360504B5B6823F0F002FD
:102740007B689B684D4913434B607B681B6803F0B3
:102750000103002B40D07B685B68012B07D1474BFE
:102760001B6803F40033002B15D101237FE07B6845
:102770005B68022B07D1414B1B6803F00073002BF1
:1027800009D1012373E03D4B1B6803F00203002BCA
:1027900001D101236BE0394B5B6823F003027B68B6
:1027A0005B68364913434B60FFF728FAF8600AE08C
:1027B000FFF724FA0246FB68D31A41F288329342AB
:1027C00001D9032353E02D4B5B6803F00C027B68B7
:1027D0005B689B009A42EBD1274B1B6803F0070311
:1027E0003A689A4210D2244B1B6823F00702224910
:1027F0003B6813430B60204B1B6803F007033A68E8
:102800009A4201D0012332E07B681B6803F0040385
:10281000002B08D0194B5B6823F4E0627B68DB680F
:10282000164913434B607B681B6803F00803002BB9
:1028300009D0124B5B6823F460527B681B69DB0094
:102840000E4913434B6000F021F802460B4B5B68C6
:102850001B0903F00F030A49CB5C22FA03F3094A70
:102860001360094B1B681846FFF786F900231846CA
:102870001037BD4680BD00BF00200240001002405E
:10288000A03F0008340000203800002090B48AB037
:1028900000AF294B3C1D0FCB84E80F0040F2012311
:1028A0003B800023FB610023BB6100237B6200238C
:1028B0007B6100233B62214B5B68FB61FB6903F09A
:1028C0000C03042B02D0082B03D02BE01C4B3B62E3
:1028D0002BE0FB699B0C03F00F0328333B4413F8F8
:1028E000243C7B61FB6903F48033002B12D0134B33
:1028F0005B685B0C03F0010328333B4413F8283C6E
:10290000BB617B690E4A03FB02F2BB69B2FBF3F3C6
:102910007B6204E07B690B4A02FB03F37B627B6A08
:102920003B6202E0064B3B6200BF3B6A1846283719
:10293000BD4690BC704700BF903F000800100240A9
:1029400000127A0000093D0080B485B000AF7860C5
:102950000A4B1B680A4AA2FB03235B0A7A6802FB44
:1029600003F3FB6000BFFB685A1EFA60002BF9D12D
:1029700000BF00BF1437BD4680BC70473400002044
:10298000D34D621080B582B000AF78607B68002BB9
:1029900001D1012341E07B6893F83D30DBB2002B8D
:1029A00006D17B68002283F83C207868FEF7D8FFC8
:1029B0007B68022283F83D207B681A687B680433B9
:1029C0001946104600F06AFA7B68012283F8462017
:1029D0007B68012283F83E207B68012283F83F2038
:1029E0007B68012283F840207B68012283F8412024
:1029F0007B68012283F842207B68012283F8432010
:102A00007B68012283F844207B68012283F84520FB
:102A10007B68012283F83D20002318460837BD4615
:102A200080BD000080B485B000AF78607B6893F80B
:102A30003D30DBB2012B01D0012335E07B6802225F
:102A400083F83D207B681B68DA687B681B6842F06E
:102A50000102DA607B681B68164A934209D07B68E2
:102A60001B68B3F1804F04D07B681B68124A934205
:102A700011D17B681B689B6803F00703FB60FB6850
:102A8000062B10D07B681B681A687B681B6842F0B5
:102A900001021A6007E07B681B681A687B681B6884
:102AA00042F001021A60002318461437BD4680BC6C
:102AB000704700BF002C01400004004080B582B088
:102AC00000AF78607B681B681B6903F00203022B70
:102AD00022D17B681B68DB6803F00203022B1BD149
:102AE0007B681B686FF002021A617B6801221A770B
:102AF0007B681B689B6903F00303002B03D0786895
:102B000000F0B1F905E0786800F0A4F9786800F009
:102B1000B3F97B6800221A777B681B681B6903F096
:102B20000403042B22D17B681B68DB6803F00403D9
:102B3000042B1BD17B681B686FF004021A617B6851
:102B400002221A777B681B689B6903F44073002B91
:102B500003D0786800F087F905E0786800F07AF92A
:102B6000786800F089F97B6800221A777B681B6817
:102B70001B6903F00803082B22D17B681B68DB6804
:102B800003F00803082B1BD17B681B686FF0080259
:102B90001A617B6804221A777B681B68DB6903F083
:102BA0000303002B03D0786800F05DF905E0786836
:102BB00000F050F9786800F05FF97B6800221A771E
:102BC0007B681B681B6903F01003102B22D17B6804
:102BD0001B68DB6803F01003102B1BD17B681B689C
:102BE0006FF010021A617B6808221A777B681B68F5
:102BF000DB6903F44073002B03D0786800F033F9ED
:102C000005E0786800F026F9786800F035F97B680F
:102C100000221A777B681B681B6903F00103012BF4
:102C20000ED17B681B68DB6803F00103012B07D121
:102C30007B681B686FF001021A617868FEF74AFD35
:102C40007B681B681B6903F08003802B0ED17B68B7
:102C50001B68DB6803F08003802B07D17B681B684F
:102C60006FF080021A61786800F067FA7B681B6871
:102C70001B6903F04003402B0ED17B681B68DB68A7
:102C800003F04003402B07D17B681B686FF04002C4
:102C90001A61786800F0F9F87B681B681B6903F01B
:102CA0002003202B0ED17B681B68DB6803F0200318
:102CB000202B07D17B681B686FF020021A617868AF
:102CC00000F032FA00BF0837BD4680BD80B584B041
:102CD00000AF786039607B6893F83C30012B01D1FC
:102CE0000223B3E07B68012283F83C207B68022248
:102CF00083F83D207B681B689B68FB60FB6823F0C2
:102D00007703FB60FB6823F47F43FB607B681B68F1
:102D1000FA689A603B681B68B3F5005F3ED0B3F574
:102D2000005F00F28780B3F5805F00F08580B3F527
:102D3000805F7FD8702B1AD0702B7BD8602B50D03F
:102D4000602B77D8502B3CD0502B73D8402B58D0C9
:102D5000402B6FD8302B64D0302B6BD8202B60D019
:102D6000202B67D8002B5CD0102B5AD062E07B68F8
:102D700018683B6899683B685A683B68DB6800F0F4
:102D80005CF97B681B689B68FB60FB6843F077031A
:102D9000FB607B681B68FA689A604EE07B68186885
:102DA0003B6899683B685A683B68DB6800F045F906
:102DB0007B681B689A687B681B6842F480429A6053
:102DC0003BE07B6818683B6859683B68DB681A46DB
:102DD00000F0BCF87B681B685021184600F013F91E
:102DE0002BE07B6818683B6859683B68DB681A46CB
:102DF00000F0DAF87B681B686021184600F003F9E0
:102E00001BE07B6818683B6859683B68DB681A46BA
:102E100000F09CF87B681B684021184600F0F3F82E
:102E20000BE07B681A683B681B681946104600F087
:102E3000EAF802E000BF00E000BF7B68012283F8EF
:102E40003D207B68002283F83C2000231846103781
:102E5000BD4680BD80B483B000AF786000BF0C3742
:102E6000BD4680BC704780B483B000AF786000BFBF
:102E70000C37BD4680BC704780B483B000AF78602B
:102E800000BF0C37BD4680BC704780B483B000AF34
:102E9000786000BF0C37BD4680BC704780B485B0F9
:102EA00000AF786039607B681B68FB607B68254AEF
:102EB000934207D07B68B3F1804F03D07B68224AEE
:102EC000934208D1FB6823F07003FB603B685B68AA
:102ED000FA681343FB607B681A4A934207D07B6809
:102EE000B3F1804F03D07B68174A934208D1FB6847
:102EF00023F44073FB603B68DB68FA681343FB60B4
:102F0000FB6823F080023B685B691343FB607B68CE
:102F1000FA681A603B689A687B68DA623B681A68EC
:102F20007B689A627B68074A934203D13B681A69BF
:102F30007B681A637B6801225A6100BF1437BD4663
:102F400080BC7047002C01400004004080B487B072
:102F500000AFF860B9607A60FB681B6A7B61FB6850
:102F60001B6A23F00102FB681A62FB689B693B61E4
:102F70003B6923F0F0033B617B681B013A69134313
:102F80003B617B6923F00A037B617A69BB68134369
:102F90007B61FB683A699A61FB687A691A6200BFD3
:102FA0001C37BD4680BC704780B487B000AFF86066
:102FB000B9607A60FB681B6A23F01002FB681A6232
:102FC000FB689B697B61FB681B6A3B617B6923F43F
:102FD00070437B617B681B037A6913437B613B69A8
:102FE00023F0A0033B61BB681B013A6913433B61BB
:102FF000FB687A699A61FB683A691A6200BF1C37FC
:10300000BD4680BC704780B485B000AF7860396041
:103010007B689B68FB60FB6823F07003FB603A6889
:10302000FB68134343F00703FB607B68FA689A6010
:1030300000BF1437BD4680BC704780B487B000AF76
:10304000F860B9607A603B60FB689B687B617B6974
:1030500023F47F437B613B681A027B681A43BB6899
:1030600013437A6913437B61FB687A699A6000BFF6
:103070001C37BD4680BC704780B485B000AF786017
:1030800039607B6893F83C30012B01D1022341E089
:103090007B68012283F83C207B68022283F83D2074
:1030A0007B681B685B68FB607B681B689B68BB6018
:1030B000FB6823F07003FB603B681B68FA681343EE
:1030C000FB607B681B68FA685A607B681B68144A5F
:1030D000934209D07B681B68B3F1804F04D07B68B2
:1030E0001B68104A93420CD1BB6823F08003BB607D
:1030F0003B685B68BA681343BB607B681B68BA684F
:103100009A607B68012283F83D207B68002283F867
:103110003C20002318461437BD4680BC704700BFD2
:10312000002C01400004004080B483B000AF786000
:1031300000BF0C37BD4680BC704780B483B000AF81
:10314000786000BF0C37BD4680BC7047014B1868E3
:10315000704700BF4000002070B500260C4D0D4C9C
:10316000641BA410A64209D100F004FF00260A4DFA
:103170000A4C641BA410A64205D170BD55F8043B4F
:1031800098470136EEE755F8043B98470136F2E7D9
:10319000E03F0008E03F0008E03F0008E43F00088F
:1031A00003460244934200D1704703F8011BF9E73C
:1031B0002DE9F84314461D468046894600F060F824
:1031C000224606460F462B4620462946FDF716FCAA
:1031D000C8BB0022002340464946FDF7DDFBB8B1DD
:1031E0000022002320462946FDF7D6FB002841D1C6
:1031F0002046294600F039FE28B30022002320464D
:103200002946FDF7D3FBF0B1FFF7A0FF222319E019
:103210003046394600F029FEC8B94046494600F01C
:1032200024FEA0B12046294600F01FFE78B13246A8
:103230003B4630463946FDF7E1FB0028E4D0FFF776
:1032400085FF2123036030463946BDE8F88300221C
:10325000002330463946FDF79FFB0028F3D0404657
:10326000494600F002FE0028EDD02046294600F035
:10327000FCFDC8E70026014FE5E700BF0000F03F76
:103280002DE9F04F93B0CDE90223DDE9022727F0C5
:103290000046894656EA0201804611D1031889F496
:1032A000002252419942824B934180F0B984DDE97A
:1032B000022340464946FCF751FF83468C466FE0A7
:1032C0007C4B29F000449C424D46824606DC01D1ED
:1032D0000028ECD19E4201DC0FD172B105F14045CE
:1032E00005F5801555EA0A05E1D1DDE90232DB1862
:1032F00082F4002252419D42D5E7002D39DA6E4B0F
:103300009E4252DCA3F154739E4240F39C843315D9
:10331000A3F2FF33142B0FDDC3F1340322FA03F1C0
:1033200001FA03F3934240F08E8401F00101C1F1F0
:103330000203009382B15DE0002A59D1C3F1140366
:1033400046FA03F101FA03F3B34240F0798401F045
:103350000101C1F102030093584B9E4232D1002F6C
:1033600080F26A8442464B4600205449FDF7D6F964
:10337000A3E700230093002A3CD14E4B9E42EBD1A1
:1033800004F1404303F5801353EA0A0300F0488434
:103390004B4B9C420BDD002FC0F24884DDE902BCA0
:1033A0005846614613B0BDE8F08F0223E2E7002FD4
:1033B0004FF0000B4FF0000CF2DADDE902B303F13D
:1033C000004CEDE7B7F1804F06D142464B464046F0
:1033D0004946FDF779F870E73A4B9F420AD1002D34
:1033E00008DB4046494613B0BDE8F04F00F05EBC34
:1033F000002300934046494600F034FD83468C4646
:10340000BAF1000F28D124B12C4B25F040429A424A
:1034100022D1002F07DA5A46634600202749FDF7DC
:103420007DF983468C46002DBADA009B04F14044B6
:1034300004F58014234308D15A4663465846614632
:10344000FCF78AFE02460B4690E7009B012BA7D1B2
:103450000CF100439C46A3E7EB0F013B0C930C9A45
:10346000009B134304D142464B4640464946E7E79A
:10347000154B9E4240F3F68003F104739E42104BBD
:1034800009DD9C420CDC002F0CDA002013B0BDE8F3
:10349000F04F00F0E2BC9C42F5DB084B9C4215DD8E
:1034A000002FF2DC002013B0BDE8F04F00F0D0BCDC
:1034B0000000F0FF0000F07FFFFF3F430000F03FFF
:1034C000FFFFEF3F0000E03F0000E04161460022C7
:1034D00058465F4BFCF740FE55A3D3E90023044652
:1034E0000D46FCF7F1FF54A3D3E9002306460F462F
:1034F00020462946FCF7E8FF002282468B462046FC
:103500002946544BFCF7E0FF02460B464CA1D1E99B
:103510000001FCF721FE22462B46FCF7D5FF0246B0
:103520000B4600204C49FCF717FE22462B468046EE
:10353000894620462946FCF7C7FF02460B4640460F
:103540004946FCF7C1FF40A3D3E90023FCF7BCFFC9
:1035500002460B4650465946FCF7FEFD4FF0000A66
:1035600002460B4604460D4630463946FCF7F6FD4A
:1035700032463B4650468B46FCF7EEFD02460B4674
:1035800020462946FCF7E8FDDDE90267009B0C9A1E
:10359000013B13434FF000064FF000020CBF2F4BCE
:1035A0002B4B04460D46DDE90201CDE900233246EE
:1035B0003B46FCF7D1FD52465B46FCF785FFDDE953
:1035C00002238046894620462946FCF77DFF0246B5
:1035D0000B4640464946FCF7C1FD32463B46804615
:1035E000894650465946FCF76FFF04460D460B4688
:1035F000024649464046CDE90245FCF7AFFD184B6F
:10360000824699420F460E4640F3E58201F13F4360
:1036100003F5E003034300F0DF81DDE90001002250
:103620000023FDF7C3F9003818BF01202EE700BFC3
:10363000000000604715F73F44DF5DF80BAE543ED5
:10364000555555555555D53FFE822B654715F73FC6
:103650000000F03F0000D03F0000E03F0000F0BF5E
:10366000FFFF8F40D24B00222B4043B958466146A2
:10367000D04BFCF729FF6FF0340283460C4623152C
:10368000A3F2FF3313440B93CB4BC4F3130444F066
:103690007F559C4245F4401508DDC84B9C4240F3E1
:1036A00099810B9BA5F5801501330B930026F30040
:1036B0000D93C34B584603EBC603D3E900342946A8
:1036C0001A46CDE908342346FCF746FDDA462B4678
:1036D0005246CDE90E01DDE90801FCF73FFD024647
:1036E0000B460020B749FDF719F802460B46CDE915
:1036F0001001DDE90E01FCF7E7FECDE90601DDE989
:103700000634CDE9043400230022AB466D1045F0A9
:103710000055049305F50025DDE9048905EB864392
:103720004046494614461D46FCF7CEFE02460B466F
:10373000DDE90E01FCF710FDDDE9082306460F4622
:1037400020462946FCF708FD02460B4650465946DE
:10375000FCF702FD42464B46FCF7B6FE02460B461E
:1037600030463946FCF7F8FCDDE91023FCF7ACFEE7
:10377000DDE90623CDE9080110461946FCF7A4FE51
:1037800079A3D3E9002304460D46FCF79DFE78A3F8
:10379000D3E90023FCF7E2FC22462B46FCF794FE1B
:1037A00075A3D3E90023FCF7D9FC22462B46FCF78E
:1037B0008BFE73A3D3E90023FCF7D0FC22462B46F3
:1037C000FCF782FE70A3D3E90023FCF7C7FC224676
:1037D0002B46FCF779FE6EA3D3E90023FCF7BEFC71
:1037E000224606460F462B4620462946FCF76CFE2D
:1037F00002460B4630463946FCF766FE04460D4647
:10380000DDE9060142464B46FCF7A8FCDDE908234A
:10381000FCF75AFE22462B46FCF7A0FC4246064621
:103820000F464B4640464946FCF74EFE0022664B8B
:1038300082468B46FCF792FC32463B46FCF78EFCF8
:1038400000240D4622460B4640464946FCF73CFE06
:10385000002280468946204629465B4BFCF77CFCCB
:1038600052465B46FCF778FC02460B46304639462A
:10387000FCF772FCDDE90623FCF726FE224606462D
:103880000F46DDE908012B46FCF71EFE02460B46FB
:1038900030463946FCF762FC002406460F460246D5
:1038A0000B4640464946FCF759FC3BA3D3E90023AD
:1038B00020460D46FCF708FE42464B46CDE9060180
:1038C00020462946FCF748FC02460B46304639465E
:1038D000FCF742FC32A3D3E90023FCF7F5FD32A349
:1038E000D3E9002306460F4620462946FCF7ECFDA7
:1038F00002460B4630463946FCF730FC0D9A334BF6
:103900004FF0000A1344D3E90023FCF727FC80465C
:103910000B988946FCF76EFD04460D460D9A2C4B1C
:103920001344D3E900674246DDE906014B46FCF744
:1039300015FC32463B46FCF711FC22462B46FCF7B1
:103940000DFC22462B4650468B46FCF705FC3246C2
:103950003B46FCF701FCDDE90623FCF7FDFB0246D4
:103960000B46404649460DE6EF4E454A287ECA3F83
:1039700065DBC9934A86CD3F01411DA96074D13FE3
:103980004D268F515555D53FFFAB6FDBB66DDB3FF5
:10399000033333333333E33F000000E009C7EE3F26
:1039A000FD033ADC09C7EE3FF5015B14E02F3EBE94
:1039B0000000F07F000040438E98030079B60B00B2
:1039C000B03F00080000F03F00000840D03F000872
:1039D000C03F000801266AE69DA3D3E900234046C4
:1039E0004946FCF7BBFB2246CDE904012B46504675
:1039F0003946FCF7B1FB02460B46DDE90401FCF752
:103A0000F3FF00287FF409AEA34A26F00043934257
:103A100040F301814FF4801A00201B15A3F2FE33FE
:103A20004AFA03F33344C3F30A529C4FA2F2FF3223
:103A30001741C3F3130A23EA0701C2F114024AF43F
:103A4000801A0B464AFA02FA002E02462946204600
:103A5000B8BFCAF1000AFCF77FFBCDE90201DDE93E
:103A60000201002442464B46FCF778FB7AA3D3E9D7
:103A7000002320460D46FCF727FDDDE9022306461C
:103A80000F4620462946FCF767FB02460B46404698
:103A90004946FCF761FB72A3D3E90023FCF714FD50
:103AA00071A3D3E900238046894620462946FCF7C6
:103AB0000BFD02460B4640464946FCF74FFB0446C9
:103AC0000D4602460B4630463946FCF747FB324668
:103AD0003B4680468946FCF73FFB02460B462046A4
:103AE0002946FCF739FB424606460F464B46404600
:103AF0004946FCF7E9FC5EA3D3E9002304460D46E2
:103B0000FCF7E2FC5CA3D3E90023FCF725FB22468B
:103B10002B46FCF7D9FC5AA3D3E90023FCF71EFB84
:103B200022462B46FCF7D0FC57A3D3E90023FCF731
:103B300013FB22462B46FCF7C7FC55A3D3E9002311
:103B4000FCF70CFB22462B46FCF7BEFC02460B465C
:103B500040464946FCF700FB04460D4602460B462C
:103B600040464946FCF7B0FC0022CDE902014FF087
:103B7000804320462946FCF7EFFA02460B46DDE972
:103B80000201FCF7CBFD324604460D463B4640465B
:103B90004946FCF799FC32463B46FCF7DFFA024601
:103BA0000B4620462946FCF7D7FA42464B46FCF71F
:103BB000D3FA02460B4600203949FCF7CDFA01EB57
:103BC0000A54B4F5801F29DA524600F055F9DDE9B0
:103BD0000023FFF7FEBB334B21F000479F427FF7E6
:103BE00013AF314B0B44034309D0DDE90001002240
:103BF0000023FCF7DBFE003818BF012053E4224607
:103C00002B46FCF7A9FA42464B46FCF7E3FE002898
:103C10003FF4FAAEE9E74FF0000A20E72146D6E785
:103C20004FF0000BDFF878C0FFF7BABB4FF0000B86
:103C30004FF0000CFFF7B4BB40464946FFF73DBBD1
:103C40000092FFF789BB0023FFF773BBAFF300803F
:103C5000FE822B654715973C00000000432EE63F8F
:103C6000EF39FAFE422EE63F396CA80C615C20BEAB
:103C7000D0A4BE726937663EF16BD2C541BDBB3E72
:103C80002CDE25AF6A56113F93BDBE166CC1663F50
:103C90003E5555555555C53F0000E03FFFFF0F000D
:103CA0000000F03FFFCB904000346F3FDFF858C179
:103CB0002DE9F0413CEA010C06460D460C460A4649
:103CC000074603460FD102460B46FCF7FDFB0246B2
:103CD0000B4630462946FCF741FA06460D4630466B
:103CE0002946BDE8F08100290EDC21F0004C5CEA99
:103CF0000707F4D041B102460B46FCF72DFA024605
:103D00000B46FCF70BFDE8E7211575D0CC074FF00B
:103D10000004C2F31302A1F2FF3742F480125EBF27
:103D2000D90F5B0001EB4202D90F01EB42021625CD
:103D300020464FF400117F105B0046189642DEBF0C
:103D4000921B701864185200013D02EBD3724FEAC7
:103D500051014FEA4303F0D129464FF0200E4FF0B6
:103D60000046824206EB050C02DC13D19C4511D8BB
:103D7000BCF1000F0CEB060543DA002D41DB00F12E
:103D80000108121A40469C4588BF02F1FF32A3EB9E
:103D90000C0331444FEAD37CBEF1010E0CEB42021E
:103DA0004FEA43034FEA5606DBD1134306D0481CC3
:103DB0000BBF71460131013421F001016310490844
:103DC00003F17F53E20703F5001348BF41F00041C0
:103DD0000E4603EB075582E7DA0A15385B05002A21
:103DE000FAD0D5020AD5C1F1200423FA04F44D1EFD
:103DF0008B402243411B89E70846F0E7520001311E
:103E0000EFE78046BDE700BF0000F07F70B50446D5
:103E10000D461646FFF79AF929460660204670BD02
:103E200037B515461C4680B1104603F10041CDE977
:103E30000001DDE9002328462146FCF745FB22224C
:103E400003B0BDE83040FFF7E1BF10461946EEE78A
:103E500000224FF08053FFF7E3BF00224FF0E04312
:103E6000FFF7DEBF21F00041704741F0004000F550
:103E70008010C00F70470000F8B5C1F30A56044621
:103E80000D4617460B4696B921F00043034339D03F
:103E9000334B0022FCF718FB324B04469F420D4681
:103EA0000FDA2BA3D3E90023FCF70EFB06E040F268
:103EB000FF7296420AD10246FCF750F904460D46BD
:103EC00020E00B46C1F30A51A1F1360640F2FE7222
:103ED000B91991420EDD05F0004444F0FC4141F473
:103EE0005F1141F41051204841F03C011AA3D3E97D
:103EF0000023D9E7002908DD23F0FF4323F4E00382
:103F000043EA015520462946F8BD11F1350F12DA72
:103F10004CF250339F424FEAD5734FEAC374DCDC56
:103F20000BA3D3E9002344F0D27141F4B7310F4819
:103F300041F01F01B8E723F0FF43363123F4E003DB
:103F400043EA0155204629460022094BACE700BF51
:103F500059F3F8C21F6EA5019C7500883CE4377EBA
:103F600000005043B03CFFFF9C75008859F3F8C235
:103F70000000903CF8B500BFF8BC08BC9E467047F6
:0C3F8000F8B500BFF8BC08BC9E467047B6
:103F900002030405060708090A0B0C0D0E0F10108A
:103FA00000000000000000000102030406070809E9
:103FB000000000000000F03F000000000000F83F9B
:103FC00000000000000000000000004003B8E23FD5
:103FD000000000000000000006D0CF43EBFD4C3E87
:043FE000350100089F
:043FE40011010008BF
:103FE80001000000000000000000000001000000C7
:103FF80000000000000000000100000000000000B8
:1040080000000000010000000000000000000000A7
:104018002C0100000024F400100000000100000042
:104028004400002000000000000000000000000024
:104038000000000000000000000000000000000078
:104048000000000000000000000000000000000068
:104058000000000000000000000000000000000058
:104068000000000000000000000000000000000048
:104078000000000000000000000000000000000038
:044088000000000034
:0400000508001B01D3
:00000001FF
